S0100000345F41475450574D2E73726563B1
S31500000000000400201D0B0000C1090000190B0000B0
S31500000010190B0000190B0000190B0000190B00004A
S31500000020000000000000000000000000190B0000A6
S31500000030190B000000000000190B0000190B00004E
S315000000400348044B834202D0034B03B11847704761
S3150000005004A2000104A2000100000000064B0749AB
S31500000060C91A891048BF0131491003D0044B0BB19E
S3150000007001481847704700BF04A2000104A200010E
S315000000800000000010B5064C237843B9FFF7D8FFEF
S31500000090044B13B10448AFF300800123237010BD55
S315000000A0180400200000000004A2000108B5054B5A
S315000000B01BB105490548AFF30080BDE80840FFF7CE
S315000000C0CDBF00BF000000001C04002004A20001F8
S315000000D010B5054C0549204600F09CF92046BDE8C0
S315000000E0104000F063B900BF3C040020780C00000B
S315000000F070B584B0044601A9184800F095FA58BBBB
S31500000100642C234628BF6423039E1549A3FB063EA1
S315000001104FEA135C4CEA0E3CC3F313066644A1FB9C
S31500000120061C4FEADC0C0CEB8C0C0CEB8C0CA6EBD7
S315000001300C010C4C5B1A04FB03F10B4D6EF1000E27
S3150000014005FB0E11A3FB053529449B08024643EA2D
S315000001508171024800F0D6F804B070BD3C0400205E
S315000001601F85EB51F5285C8F295C8FC200F00CB817
S31500000170022800D070470249024800F0B9B800BF13
S31500000180A00C00003404002010B5FFF7A1FF0024E6
S315000001900134E4B2652C08BF00242046FFF7A8FF0F
S315000001A04FF47A71322000F0C5FBF1E708B5FFF78E
S315000001B0DDFF002008BD00BF2DE9F8430388BBB171
S315000001C007464FF00008DFF8789000241B4D4FEAF1
S315000001D0C8067B6835F8022B99198988914209D09F
S315000001E00134032CF5D13B8808F101084345ECD8CE
S315000001F0BDE8F8839B5904F1200203F0B853B3F12C
S31500000200807F19F812300CD0DB09E9D019F81230CA
S31500000210012123F08003C82009F8123000F08AFB80
S31500000220DEE7DB09DCD119F81230012143F0800347
S31500000230C82009F8123000F07DFBD1E7C40C00009D
S3150000024000300840F8B50646FFF7B6FFEFF3108218
S31500000250012383F31088234F3B681BB92249CB70D7
S315000002604023CB703B6801333B6082F310883388B0
S3150000027023B300211D4D08E01B01134445F823401C
S31500000280328801318BB29A4218D9736853F83140DB
S3150000029003EBC1029288E0034FEA1223D2B2EBD5F8
S315000002A002EB031055F820E024F4803C2EF4803E47
S315000002B045F820E01B0145F820C0DEE7EFF3108289
S315000002C0012383F310883B6813B13B68013B3B6015
S315000002D03B681BB980200449CB70C87082F3108834
S315000002E0F8BD00BFA4040020000D08400008084027
S315000002F008B5034B03600846FFF7A4FF002008BDBE
S3150000030054524F5030B4057B846895B104F10C0CFF
S315000003109CF8000000F001009CF80030C3F3400395
S315000003208342F9D145B1043444F82210002030BC90
S31500000330704704F1080CEBE7023489B224F8121076
S31500000340002030BC704700BF30B4037B44680161B5
S31500000350227C0BB90232D2B2134D247845F8221012
S315000003604A1E64B949088468ABB1616083689960C4
S31500000370037B816863B992B20A8030BC7047012C56
S315000003800FD0022C18BF0021EDD18168002BF2D0CE
S315000003900A6030BC704789B2618083689980037BAC
S315000003A0F3E71146DFE700BF5C04002010B5037BCE
S315000003B084680BB30C34227802F001022378C3F36D
S315000003C040039A42FAD143681B78012B16D0F123D9
S315000003D0237043681B78012B01D0002010BD2378C1
S315000003E09B07FCD5037B826863B14FF0FF335360F4
S315000003F082680020936010BD0834DCE70169FFF7CE
S31500000400A3FFE4E74FF6FF735380826800209380D2
S3150000041010BD00BF01232DE9F04F83B00373416087
S315000004200A7C0446120202F1804202F568220D4659
S315000004308260EFF3108083F31088217B002900F09F
S315000004409E80297C032900F2B180C1F1030103FAE1
S3150000045001F1CB436E49CE680C3133400B60237BF0
S31500000460002B00F083802E7C6A4B6B49032E88BFDD
S315000004700B461B6880F3108800231373137BC3F3AA
S3150000048040019B07FAD4917394F80CE02F7AEB693C
S31500000490D4F80880BEF1000F65D008F10C01DA78B7
S315000004A01E7802F0070218790192002E55D1002F0E
S315000004B074D1666893F801C096F800A00CF077092D
S315000004C0BAF1020F7AD09B7813F0070305D040F0FB
S315000004D00400032B08BF40F00100019B087181F85E
S315000004E006904B708F7020466968FFF72DFF95F9CF
S315000004F01230002B26DB6A7C03F160411201D2B276
S3150000050001F5614181F800234449454A41F82340F9
S3150000051003F1C00152F8210020F4803042F8210096
S3150000052052F82120BFF35F8F01215A09920003F090
S315000005301F0302F1604202F5614201FA03F3C2F8B9
S315000005408031136000206B69364A6361AB692260B3
S31500000550C4E9060303B0BDE8F08F502E019A52D0CD
S3150000056032430192A5E708F1080198E7297C294B57
S31500000570294E0231C9B2032988BF334679E7297C5F
S315000005800231C9B203297FF660AFC1F1130103FA44
S3150000059001F1CB431E490E6910315EE787F0020771
S315000005A042EA0712D2B23746019282E7C1F113013D
S315000005B08B401749DB430E6910314EE7D6F804B07D
S315000005C0D6F80CA00BF1FF36A6EB0A020CF0070BCF
S315000005D00CF0700CBBF1070F0CBF16465646BCF16B
S315000005E0700F18BF5246BEF1000F04D0C8F8046061
S315000005F0A668B26067E71FFA86FBA8F802B096B253
S31500000600A26896805FE742F050020027019250E709
S31500000610004008400C40084010400840A804002054
S315000006200060004054474100037B8268F3B10C32FE
S3150000063092F800C00CF0010C1378C3F340039C45FC
S31500000640FAD103698B604368DA691278502A1AD1A5
S31500000650027B1B7C62B1374A013BDBB252F8233086
S31500000660002B3DD100204B60087070470832DFE751
S31500000670304A0133DBB252F82330002BF2D08268C5
S31500000680A2F1F80C2FE0037B8068CBB1427B0C30E3
S31500000690C2F30212032A19D82748284B006A1B689E
S315000006A0C0F3026C03FA0CF3C0F30220C340002A25
S315000006B0D8D0002082F00202D3404B600870704709
S315000006C0427A0830C2F30212032AE5D94FF40043F6
S315000006D08278002002F00702D3404B600870704712
S315000006E08268A2F1F40C9CF80100C0F30210032802
S315000006F016D810B5104C114A246A1268C4F3026E5B
S3150000070002FA0EF2C4F3022C22FA0CF210B180F0B7
S315000007100200C240B2FBF3F300204B60087010BD2C
S315000007204FF400429CF8020000F00700C240B2FB02
S31500000730F3F397E75C04002000E00140B8040020D2
S31500000740064B074993F826001A6A51F82030C2F37F
S3150000075002620449D3400B60704700BF00E00140CD
S3150000076000040020B8040020704700BFF8B54AF224
S31500000770035001234349444AA1F8FE03A2F8043179
S31500000780B2F804319BB2002BFAD101204FF4004598
S315000007904FF0090C3D4CDFF80CE13D4EC4F804E087
S315000007A03C4F0EF1376E37490EF5D83EE660C4F879
S315000007B014E0A2F80001B86038602660A5602561E3
S315000007C091F82620086A54F82220334EC0F30260BE
S315000007D0C240326081F8133481F8A2C091F88034A7
S315000007E01BB991F88134990746D0264D95F8803487
S315000007F0002B36D00022234B83F8812483F88024F3
S315000008000023204981F8323091F83C301A07FBD595
S315000008104FF4985000231B4A088581F82A3092F835
S315000008203C309B06FBD5032005231749F12581F8AB
S315000008301C011A49116282F8263092F82630106A95
S3150000084054F82310C0F30260C14031600124F02047
S315000008504FF42541124B1D731C721873A2F8FE1338
S31500000860F8BD0121C82085F8801400F063F895F8DA
S315000008708034012BFBD1BDE74FF47A70FFF774FF8C
S31500000880BEE700BF00E0014000C0014000040020B8
S31500000890002D310100700040B80400202112002014
S315000008A00020004000127A0038B500251C4C0121BA
S315000008B0C82084F8285000F03DF884F8245094F8B5
S315000008C02430002BFBD194F82430154A43F0020360
S315000008D084F8243092F82430C3F340009B07F9D4FF
S315000008E00F4982F8220091F8223003F0FF00002B16
S315000008F0F9D191F840300A4A60F3C71381F84030C5
S3150000090092F84030DB09FBD192F84200044963F3C8
S31500000910C71082F8420091F84230DB09FBD138BD9E
S3150000092000300840704700BFA0F101000028FBD14D
S31500000930704700BF1F4B204A1B6800FB01F1934222
S3150000094013D302F1854202F5071203F5741302F67A
S31500000950834203F6FF03A2FB03231B0DA3FB013116
S315000009604FF0FF30F9B1FFF7DFBF4FF47A7210B4E2
S31500000970A1FB02C41148B0FBF3F34FF0FF3044B9BA
S31500000980BCFBF3FC4FEA9C0088B15DF8044BFFF713
S31500000990CBBF9B00B1FBF3F1A1FB0212002AF4D1FD
S315000009A0084620B1F1E71846002BDCD170475DF808
S315000009B0044B7047B804002000127A0000CA9A3B24
S315000009C070B500240B4B0C4EB3F82021B3F8405100
S315000009D0ADB2154025FA04F3DB0704D556F82430EA
S315000009E0E0B203B198470134102CF3D1014BA3F8C0
S315000009F0305170BD006000406404002010B5032033
S31500000A0084B000F05FF84FF0FF326FF0FF0111483D
S31500000A10114B04889964CDE9012203921CB16FF051
S31500000A2001031A4601930C490C4B0A67C3F880224E
S31500000A30029A03204A67C3F88422039A8A67C3F896
S31500000A40882200F00FF814B1054BC3F8004304B038
S31500000A5010BD00BF340D00000080004000E100E042
S31500000A6000600040EFF31081012383F31088124BDE
S31500000A7033F8102092B22AB133F81020013A92B21C
S31500000A8023F8102033F810309BB293B910B40B4AF8
S31500000A900B4CB2F8FE3334F810009BB243F42543F6
S31500000AA023EA0003A2F8FE3381F310885DF8044BB5
S31500000AB0704781F310887047AC04002000E00140C5
S31500000AC0380D000030B4EFF31081012383F3108852
S31500000AD00E4A32F810309BB26BB90D4C0D4DB4F87E
S31500000AE0FE3335F810C09BB243EA0C0343F42543AA
S31500000AF09BB2A4F8FE3332F8103001339BB222F8D1
S31500000B00103081F3108830BC704700BFAC04002061
S31500000B1000E00140380D000000BE704708B500F047
S31500000B2035F8FFF743FBFEE7F8B5174F05463E6875
S31500000B30A6B17C6806EB460604EB860602E00C349A
S31500000B40B4420BD0637AAB42F9D1D4E9000200215A
S31500000B50121A0C3400F07AF8B442F3D1BE6896B19A
S31500000B60FC6804EB061602E01034A6420BD0637B49
S31500000B70AB42F9D1D4E90002A168121A103400F090
S31500000B806DF8A642F3D1F8BDCC0C00004FF470010D
S31500000B90274B284A70B50020C3F888109A60FFF7E3
S31500000BA0E7FAFFF7E3FD0120FFF7E2FA224B83F3B2
S31500000BB00A880020FFF7B8FFFFF7C2FDFFF774FEB3
S31500000BC00320FFF77FFF00234FF6FF701B4903F159
S31500000BD008020133092B21F81200F8D10024032062
S31500000BE0FFF740FF0320FFF76DFF154B03205C6006
S31500000BF09C60DC601C61FFF735FF0220FFF7B8FA46
S31500000C000120FFF791FF0F4D0F4B5B1BA3424FEAED
S31500000C10A30605DD55F8043B01349847A642F9DCE6
S31500000C20FFF7ECFEBDE870400020FFF77BBE00BF7B
S31500000C3000ED00E00000000000000020000D08406C
S31500000C4000000E409C0D0000A00D0000024403466B
S31500000C50934200D1704703F8011BF9E70A44431E8B
S31500000C60914200D1704710B511F8014B914203F83B
S31500000C70014FF9D110BD000002000000C4090000B8
S31500000C8000000000E204000000FFDF00000000009A
S31500000C9000000000980C00000007000100000002A0
S31500000CA003000000AC0C0000000000000000010082
S31500000CB0080100000000010000030000000001011F
S31500000CC00005000002040304040400000200000002
S31500000CD01C0D000003000000EC0C000001000000E9
S31500000CE0E40C0000000000200000002000000020AE
S31500000CF0000000200000006000010C03000000203E
S31500000D000000002000000008000002030000002090
S31500000D100000002040000000000001030000002049
S31500000D20000000200000000318040020BC0400207E
S31500000D30000000030000000001000200080010008F
S31500000D40200000004275696C74207769746820522F
S31500000D50656E6573617320416476616E63656420B8
S31500000D60466C657869626C6520536F66747761724C
S31500000D7065205061636B6167652076657273696F84
S31500000D806E20362E312E3000362E312E30000000E9
S30900000D900000010652
S30900000D94F8B500BFE9
S30900000D98F8B500BFE5
S30900000D9CAD000000A0
S30900000DA085000000C4
S3090100A100FFFFFFFF58
S3090100A200FFFDFFFF59
S70500000B1DD2
