S00D0000365F4144432E73726563BA
S3150000000000040020B50B0000590A0000B10B0000E7
S31500000010B10B0000B10B0000B10B0000B10B0000EA
S31500000020000000000000000000000000B10B00000E
S31500000030B10B000000000000B10B0000B10B000086
S30900000040D1070000DE
S315000000440348044B834202D0034B03B1184770475D
S3150000005404A2000104A2000100000000064B0749A7
S31500000064C91A891048BF0131491003D0044B0BB19A
S3150000007401481847704700BF04A2000104A200010A
S315000000840000000010B5064C237843B9FFF7D8FFEB
S31500000094044B13B10448AFF300800123237010BD51
S315000000A4180400200000000004A2000108B5054B56
S315000000B41BB105490548AFF30080BDE80840FFF7CA
S315000000C4CDBF00BF000000001C04002004A20001F4
S315000000D408B50849084800F065FA00B108BD0749A3
S315000000E4054800F031F90028F8D0BDE80840024878
S315000000F400F0F2BA240D000040040020100D0000A8
S315000001040122014B1A7070473404002000F00CB829
S31500000114022800D070470249024800F0B3B800BF75
S31500000124480D00003804002008B5FFF7D1FF034C42
S315000001342146012000F048FCFAE700BF40420F00C8
S3150000014408B5FFF7E3FF002008BD00BF2DE9F8431B
S315000001540388BBB107464FF00008DFF87890002407
S315000001641B4D4FEAC8067B6835F8022B9919898816
S31500000174914209D00134032CF5D13B8808F10108DA
S315000001844345ECD8BDE8F8839B5904F1200203F0FB
S31500000194B853B3F1807F19F812300CD0DB09E9D0DB
S315000001A419F81230012123F08003C82009F812300F
S315000001B400F00AFCDEE7DB09DCD119F81230012174
S315000001C443F08003C82009F8123000F0FDFBD1E7A4
S315000001D4700D000000300840F8B50646FFF7B6FF7C
S315000001E4EFF31082012383F31088234F3B681BB976
S315000001F42249CB704023CB703B6801333B6082F3CA
S315000002041088338823B300211D4D08E01B011344D5
S3150000021445F82340328801318BB29A4218D9736863
S3150000022453F8314003EBC1029288E0034FEA1223EC
S31500000234D2B2EBD502EB031055F820E024F4803C4F
S315000002442EF4803E45F820E01B0145F820C0DEE789
S31500000254EFF31082012383F310883B6813B13B68E4
S31500000264013B3B603B681BB980200449CB70C870D6
S3150000027482F31088F8BD00BFA4040020000D0840D6
S315000002840008084008B5034B03600846FFF7A4FFBF
S31500000294002008BD54524F50F0B5C769054689B0D1
S315000002A417B3BE466C468C46BEE80F003E460FC4E6
S315000002B49EE80F0084E80F00BCE80F000FC69CE818
S315000002C40F008EE80F00AB6938469847EB694BB1CF
S315000002D49C46EE46BEE80F00ACE80F009EE80F0011
S315000002E48CE80F0009B0F0BD0F46ECE710B50246E6
S315000002F488B0EFF303831249103B5BB251F8230035
S31500000304EFF30383103B0F495BB2C03351F823402C
S3150000031424F4803441F8234051F823300021436803
S315000003248DF802201C88026A8369ADF800400192A8
S315000003348DF8081013B16946FFF7AEFF08B010BD7B
S31500000344A8040020006000402DE9F047D1E9018EA1
S31500000354764B41F2360C1A68034608685F681C68D7
S315000003641FFA80F97F69A4F804901C681FFA88F9BB
S31500000374A4F814901C681FFA8EF9A4F808901C6857
S3150000038420F0C0404FEA1049A4F806901C6828F0F3
S31500000394C0484FEA1848A4F816801C682EF0C04ED0
S315000003A44FEA1E4E624EA4F80AE0366A614DC6F361
S315000003B4026802FA08F2C6F3021E22FA0EF2A5FB3E
S315000003C4025292090CFB02F2DFF878A1AAFB024260
S315000003D4D1E90045920C0132072A45EA040538BFE3
S315000003E4072215F0005420D0EFF3108C012484F377
S315000003F41088514CE66826F48006E660E4688CF3BF
S31500000404108890264D4C26701C68D6B284F8DE609F
S315000004140C688E6814F0005F0CBF4FF480644FF4D0
S315000004248074B60048BF44F001046E000FD51D6801
S31500000434D2B285F8DF200A6855008A684CBF44F4B6
S31500000444007444F40064520048BF44F002041A687D
S31500000454A4B25482CA68002A66D0148926052ED40A
S315000004642546AD050DD5D67C957C35431E6886F8A4
S31500000474A6501D68D689A5F8A860158A1A68A2F838
S31500000484AA501A68A2F890401A680C8AA2F880400A
S315000004943A796AB1B0FA80F01C68228892B222F0E6
S315000004A41F021F32121A92B22280988A02439A823B
S315000004B4234A0020DA600A681A61BDE8F0871D68DD
S315000004C4A5F890401D685689A5F89C601D68968914
S315000004D4A5F89E6015681E681FFA85FCA6F894C0E8
S315000004E44FEA154C1E682CF4C04C1FFA8CFCA6F877
S315000004F496C01E68C5F3417586F8925055681E6805
S315000005041FFA85FCA6F898C04FEA154C1E682CF411
S31500000514C04C1FFA8CFCA6F89AC01E68C5F3417538
S3150000052486F8935015899CE71446AAE7B804002078
S3150000053400E00140D34D62100040084000300F40F7
S315000005444344415283DE1B4310B400F1604C134C08
S315000005540901134BC9B20CF5614C8CF8001300F178
S31500000564C00144F8202053F8212022F4803243F8B5
S31500000574212053F82130BFF35F8F012243099B00EA
S3150000058400F01F0003F1604303F561438240C3F8A2
S3150000059480211A605DF8044B704700BFA804002050
S315000005A40060004000222DE9F8434E694160CB68A3
S315000005B4044683610B690D46C0E907230B885B0279
S315000005C403F1804303F5B813036048698B78827896
S315000005D45B03002A6BD143F450710379002B6CD171
S315000005E489B2A1828278C77812022B7907F03F0775
S315000005F402F47C523A43EF78DB0343EA4703477835
S3150000060490F800E043EA4713EFF310894FF0010C2A
S315000006148CF31088B5F800802D4FC8F110080CFA39
S3150000062408FCD7F80C8028EA0C0CC7F80CC0FF6845
S3150000063489F3108847F6FF573940276892B2398004
S3150000064421689BB20A822268D381236883F80CE06E
S3150000065483792268A3F10103B3FA83F35B0982F871
S31500000664D03095F90600002803DB2246697AFFF7A5
S315000006746BFF95F90700002803DB2246A97AFFF7EA
S3150000068463FF96F90700002803DB2246717AFFF719
S315000006945BFF96F90800002803DB2246B17AFFF7D0
S315000006A453FF00200B4B2061A360BDE8F8833F2A6B
S315000006B4077943F4107108D117B141F080018FE72F
S315000006C443F4024141F040018AE7002F88D0F4E761
S315000006D4004008404344415270B40024C0E9024437
S315000006E44268034692F906105069A14211DB0125BE
S315000006F4334E4A0901F01F0C203205FA0CF546F870
S315000007042250BFF34F8FBFF36F8F2E4A42F821401A
S315000007145A6892F90720002A10DB012402F01F050B
S31500000724AC405109264D203145F82140BFF34F8F87
S31500000734BFF36F8F0024234941F8224090F9072024
S31500000744002A10DB012402F01F05AC4051091C4DA0
S31500000754203145F82140BFF34F8FBFF36F8F00243C
S31500000764184941F8224090F90820002A10DB01209C
S31500000774134C510902F01F052031A84044F821000A
S31500000784BFF34F8FBFF36F8F00200E4941F822004D
S3150000079400201A6810821A681080EFF31084012270
S315000007A482F310885968084B0988C1F110018A4000
S315000007B4D9680A43DA60DB6884F3108870BC704732
S315000007C400E100E0A8040020004008400020FFF7F4
S315000007D48DBD00BF064B074993F826001A6A51F8E7
S315000007E42030C2F302620449D3400B60704700BF55
S315000007F400E0014000040020B8040020704700BF58
S31500000804F8B54AF2035001234349444AA1F8FE03CA
S31500000814A2F80431B2F804319BB2002BFAD10120BC
S315000008244FF400454FF0090C3D4CDFF80CE13D4E0A
S31500000834C4F804E03C4F0EF1376E37490EF5D83E46
S31500000844E660C4F814E0A2F80001B86038602660D7
S31500000854A560256191F82620086A54F82220334EB3
S31500000864C0F30260C240326081F8133481F8A2C03A
S3150000087491F880341BB991F88134990746D0264DF6
S3150000088495F88034002B36D00022234B83F881243C
S3150000089483F880240023204981F8323091F83C30D3
S315000008A41A07FBD54FF4985000231B4A088581F894
S315000008B42A3092F83C309B06FBD5032005231749C2
S315000008C4F12581F81C011A49116282F8263092F842
S315000008D42630106A54F82310C0F30260C140316018
S315000008E40124F0204FF42541124B1D731C7218731A
S315000008F4A2F8FE13F8BD0121C82085F8801400F083
S3150000090463F895F88034012BFBD1BDE74FF47A7078
S31500000914FFF774FFBEE700BF00E0014000C00140DE
S3150000092400040020002D310100700040B8040020AE
S31500000934211200200020004000127A0038B500255C
S315000009441C4C0121C82084F8285000F03DF884F896
S31500000954245094F82430002BFBD194F82430154A03
S3150000096443F0020384F8243092F82430C3F34000A1
S315000009749B07F9D40F4982F8220091F8223003F03C
S31500000984FF00002BF9D191F840300A4A60F3C713EF
S3150000099481F8403092F84030DB09FBD192F84200EE
S315000009A4044963F3C71082F8420091F84230DB0928
S315000009B4FBD138BD00300840704700BFA0F10100EC
S315000009C40028FBD1704700BF1F4B204A1B6800FB61
S315000009D401F1934213D302F1854202F5071203F59E
S315000009E4741302F6834203F6FF03A2FB03231B0DD3
S315000009F4A3FB01314FF0FF30F9B1FFF7DFBF4FF42E
S31500000A047A7210B4A1FB02C41148B0FBF3F34FF0A1
S31500000A14FF3044B9BCFBF3FC4FEA9C0088B15DF897
S31500000A24044BFFF7CBBF9B00B1FBF3F1A1FB021212
S31500000A34002AF4D1084620B1F1E71846002BDCD190
S31500000A4470475DF8044B7047B804002000127A0022
S31500000A5400CA9A3B70B500240B4B0C4EB3F8202108
S31500000A64B3F84051ADB2154025FA04F3DB0704D5BB
S31500000A7456F82430E0B203B198470134102CF3D170
S31500000A84014BA3F8305170BD00600040640400209F
S31500000A9410B5032084B000F05FF84FF0FF326FF01A
S31500000AA4FF011148114B04889964CDE90122039290
S31500000AB41CB16FF001031A4601930C490C4B0A67EB
S31500000AC4C3F88022029A03204A67C3F88422039A51
S31500000AD48A67C3F8882200F00FF814B1054BC3F8EF
S31500000AE4004304B010BD00BF6C0D00000080004040
S31500000AF400E100E000600040EFF31081012383F37E
S31500000B041088124B33F8102092B22AB133F8102011
S31500000B14013A92B223F8102033F810309BB293B9FD
S31500000B2410B40B4A0B4CB2F8FE3334F810009BB2E7
S31500000B3443F4254323EA0003A2F8FE3381F3108825
S31500000B445DF8044B704781F310887047AC040020AD
S31500000B5400E00140E00D000030B4EFF31081012302
S31500000B6483F310880E4A32F810309BB26BB90D4CE1
S31500000B740D4DB4F8FE3335F810C09BB243EA0C03AE
S31500000B8443F425439BB2A4F8FE3332F81030013304
S31500000B949BB222F8103081F3108830BC704700BF36
S31500000BA4AC04002000E00140E00D000000BE7047E8
S31500000BB408B500F035F8FFF7C3FAFEE7F8B5174FA6
S31500000BC405463E68A6B17C6806EB460604EB860637
S31500000BD402E00C34B4420BD0637AAB42F9D1D4E9C7
S31500000BE400020021121A0C3400F07AF8B442F3D150
S31500000BF4BE6896B1FC6804EB061602E01034A64201
S31500000C040BD0637BAB42F9D1D4E90002A168121A76
S31500000C14103400F06DF8A642F3D1F8BD780D00004B
S31500000C244FF47001274B284A70B50020C3F888108A
S31500000C349A60FFF76DFAFFF7E3FD0120FFF768FA04
S31500000C44224B83F30A880020FFF7B8FFFFF7C2FDA3
S31500000C54FFF774FE0320FFF77FFF00234FF6FF70B4
S31500000C641B4903F108020133092B21F81200F8D1BC
S31500000C7400240320FFF740FF0320FFF76DFF154B09
S31500000C8403205C609C60DC601C61FFF735FF02207A
S31500000C94FFF73EFA0120FFF791FF0F4D0F4B5B1B49
S31500000CA4A3424FEAA30605DD55F8043B01349847F1
S31500000CB4A642F9DCFFF7ECFEBDE870400020FFF722
S31500000CC47BBE00BF00ED00E0000000000000002035
S31500000CD4000D084000000E40440E0000480E0000BF
S31500000CE402440346934200D1704703F8011BF9E717
S31500000CF40A44431E914200D1704710B511F8014BC6
S31500000D04914203F8014FF9D110BD00000100000023
S31500000D1400000000000000000000000000000018B1
S31500000D2400000000000F00DF000AFF0005010000BC
S31500000D34000000003C0D000000013F3F000000DF02
S31500000D44DFFFFF0003000000540D00000000000058
S31500000D5400800000000000000000010008010000FF
S31500000D640000010000030000600100000204030407
S31500000D740404000002000000C80D00000300000087
S31500000D84980D000001000000900D000000000020F6
S31500000D940000002000000020000000200000006089
S31500000DA400010C03000000200000002000000008E1
S31500000DB400000203000000200000002044000000A0
S31500000DC400000103000000200000002000000003D2
S31500000DD418040020BC0400200000000301000200E7
S31500000DE408001000200000004275696C74207769C1
S31500000DF474682052656E6573617320416476616E12
S31500000E0463656420466C657869626C6520536F6619
S31500000E147477617265205061636B616765207665DE
S31500000E247273696F6E20362E312E3000362E312EB7
S30D00000E34300000000000010679
S30900000E3CF8B500BF40
S30900000E40F8B500BF3C
S30900000E44B1000000F3
S30900000E488900000017
S3090100A100FFFFFFFF58
S3090100A200FFFDFFFF59
S70500000BB53A
