S0100000355F47505450574D2E73726563A1
S3150000000000040020590B0000FD090000550B0000FC
S31500000010550B0000550B0000550B0000550B00005A
S31500000020000000000000000000000000550B00006A
S31500000030550B000000000000550B0000550B00009A
S315000000400348044B834202D0034B03B11847704761
S3150000005004A2000104A2000100000000064B0749AB
S31500000060C91A891048BF0131491003D0044B0BB19E
S3150000007001481847704700BF04A2000104A200010E
S315000000800000000010B5064C237843B9FFF7D8FFEF
S31500000090044B13B10448AFF300800123237010BD55
S315000000A0180400200000000004A2000108B5054B5A
S315000000B01BB105490548AFF30080BDE80840FFF7CE
S315000000C0CDBF00BF000000001C04002004A20001F8
S315000000D038B50D4C0D4D2046294600F021FA4CF25C
S315000000E05031204600F004F9204600F0FBF8204687
S315000000F000F0F2F82946204600F012FA2046BDE844
S31500000100384000F0E9B800BF3C040020B40C000001
S3150000011030B50446094D85B001A9284600F002F91C
S315000001200399074B04FB01F1A3FB0131002228468A
S31500000130490900F04BF905B030BD00BF3C04002072
S315000001401F85EB5100F00CB8022800D07047024919
S31500000150024800F0B7B800BF140D000034040020B8
S3150000016010B5FFF7B5FF0024A0B2FFF7D1FF0134A9
S315000001704FF47A71642000F0FBFB642CF4D1F2E7B3
S3150000018008B5FFF7DFFF002008BD00BF2DE9F843E3
S315000001900388BBB107464FF00008DFF878900024CB
S315000001A01B4D4FEAC8067B6835F8022B99198988DA
S315000001B0914209D00134032CF5D13B8808F101089E
S315000001C04345ECD8BDE8F8839B5904F1200203F0BF
S315000001D0B853B3F1807F19F812300CD0DB09E9D09F
S315000001E019F81230012123F08003C82009F81230D3
S315000001F000F0BEFBDEE7DB09DCD119F81230012185
S3150000020043F08003C82009F8123000F0B1FBD1E7B3
S31500000210380D000000300840F8B50646FFF7B6FF77
S31500000220EFF31082012383F31088234F3B681BB939
S315000002302249CB704023CB703B6801333B6082F38D
S315000002401088338823B300211D4D08E01B01134499
S3150000025045F82340328801318BB29A4218D9736827
S3150000026053F8314003EBC1029288E0034FEA1223B0
S31500000270D2B2EBD502EB031055F820E024F4803C13
S315000002802EF4803E45F820E01B0145F820C0DEE74D
S31500000290EFF31082012383F310883B6813B13B68A8
S315000002A0013B3B603B681BB980200449CB70C8709A
S315000002B082F31088F8BD00BF9C040020000D0840A2
S315000002C00008084008B5034B03600846FFF7A4FF83
S315000002D0002008BD54524F5003460020D3E90223A4
S315000002E05360704703460020D3E90223D36070476A
S315000002F083684A1E9A6643681B782BB98368490847
S3150000030001395965836899658368D96AC90707D42D
S315000003104FF4AA015A6683681964D0E90232DA609A
S315000003200020704702464FF0010C30B494680C4D23
S31500000330646E0C4B64448C6092681B68D46A2A6AAB
S3150000034081F800C0C4F3C35CC2F30264A34002F0A8
S315000003500702D34023FA0CF3002030BC4B607047F1
S3150000036000E00140B004002030B48C6E01342AB1A4
S31500000370944203D930BC013A1A607047029D496B1A
S315000003800078ED0754BF01F01F01C1F304410328B3
S3150000039008D9090981F001016AB9A1B930BC022264
S315000003A05A60704701F00C01A1F10401B1FA81F124
S315000003B04909002AF1D0944201D80029EED130BC77
S315000003C003225A607047002CE8D0F8E72DE9F04385
S315000003D04FF0FF384FF0000987B00092CDE904894D
S315000003E0D0F8088004AB05460F461446406802F074
S315000003F003090A464146FFF7B7FF059BD8F8306068
S315000004008BB914F0080F14BF04220222A107049826
S3150000041020D502F1120108EB81014860A968133268
S3150000042001EB820148606206A9681CD50A6CB9F125
S31500000430010F42F480020A6428D026F4403646EAC8
S315000004400346A968B9F1000F17D100200E6307B063
S31500000450BDE8F0834A44123208EB8208C8F804006B
S315000004606206A968E2D4B9F1010F24D026F4403619
S31500000470022C46EA0346E4D173B926F0407646EAF2
S31500000480036600200E6307B0BDE8F08326F04076D1
S31500000490A96846EA0366F4E70124686804AB3A46AD
S315000004A000940391FFF760FF059B26F040760399C1
S315000004B046EA0366E5E7022CDFD1DDE7002800DA2D
S315000004C0704710B400F160430901124CC9B203F53C
S315000004D0614383F80013104B44F8202000F1C0025A
S315000004E053F8221021F4803143F8221053F82230B9
S315000004F0BFF35F8F012243099B0000F01F0003F149
S31500000500604303F561438240C3F880211A605DF8B9
S31500000510044B7047A004002000600040000000006B
S315000005204FF0010C2DE9F04100270A7C84B00CFA4B
S3150000053002F24160C26080F810C00A7C8C4B0D4606
S3150000054013441B0283604B69044643618B69C0E90F
S315000005500673CE69EFF310808CF310884FF00041DC
S315000005602A7C844BD1401A6922EA01021A611B696E
S3150000057080F310884FF42542A36800201A60A36810
S315000005809FED797BDF62A368DF63A3689F642A78A7
S315000005902B7A032A4FF00042A7684FEAC35308BFDD
S315000005A043F480336968FB62A36801391A61A36862
S315000005B05A61A3689A61A3685862A3689862A3689F
S315000005C0B269DA61A368F2691A62A3689966A368D8
S315000005D059662B788DED027BB76B002B40F08F8030
S315000005E04FF0010803206A685208013A0292A16896
S315000005F04A65A1688A652978032903D9A168CA656D
S31500000600A1680A66B26BD2B93278AAB12A78717833
S31500000610022A4FEA811E4FEA011C00F09E80032A3F
S3150000062003D000290CBF062209223A4342EA0E02F1
S3150000063042EA0C0242F48077B278002A72D16268EC
S31500000640D26992F83010CB0705D5916AA3680139B3
S31500000650D96492F83010890703D5D26AA168013AA5
S315000006600A650122297C8A40930602D00021A268ED
S3150000067051640022A1688A63A168C1F88820B26B20
S315000006803AB996F8212096F82010520742EA4132EC
S31500000690174396F83020002A14BF4FF4A0014FF4F8
S315000006A0AA01A26811642A78012A04D10022A1684D
S315000006B0CA64A1680A65A2685763A2681063A26843
S315000006C0C2F83080D4E90232DA60697C224695F9B4
S315000006D01200FFF7F3FE224696F8221096F9240040
S315000006E0FFF7ECFE96F92500224696F82310FFF751
S315000006F0E5FE0020204B236004B0BDE8F081012B0D
S3150000070026D00090D4E90101EA6802ABFFF72CFE7F
S31500000710DDE902210B0643EA014343F0030043F0FF
S31500000720010864E796F803C029784FEA0C120229FB
S3150000073042EA8C1213D0032904D0BCF1000F0CBF7F
S31500000740062109210A4347EA024242F0807776E70A
S31500000750984603204FF0FF3249E7092265E7092151
S31500000760F0E700BFAFF30080FFFFFFFF00000000CF
S31500000770901640000040084054504700064B074979
S3150000078093F826001A6A51F82030C2F3026204492F
S31500000790D3400B60704700BF00E00140000400201A
S315000007A0B0040020704700BFF8B54AF20350012399
S315000007B04349444AA1F8FE03A2F80431B2F80431D1
S315000007C09BB2002BFAD101204FF400454FF0090CE3
S315000007D03D4CDFF80CE13D4EC4F804E03C4F0EF111
S315000007E0376E37490EF5D83EE660C4F814E0A2F835
S315000007F00001B86038602660A560256191F8262062
S31500000800086A54F82220334EC0F30260C2403260B8
S3150000081081F8133481F8A2C091F880341BB991F89D
S315000008208134990746D0264D95F88034002B36D072
S315000008300022234B83F8812483F880240023204957
S3150000084081F8323091F83C301A07FBD54FF49850B6
S3150000085000231B4A088581F82A3092F83C309B0613
S31500000860FBD5032005231749F12581F81C011A49F8
S31500000870116282F8263092F82630106A54F8231056
S31500000880C0F30260C14031600124F0204FF42541DD
S31500000890124B1D731C721873A2F8FE13F8BD0121CA
S315000008A0C82085F8801400F063F895F88034012B91
S315000008B0FBD1BDE74FF47A70FFF774FFBEE700BFC8
S315000008C000E0014000C0014000040020002D31017D
S315000008D000700040B00400202112002000200040DB
S315000008E000127A0038B500251C4C0121C82084F876
S315000008F0285000F03DF884F8245094F82430002B5A
S31500000900FBD194F82430154A43F0020384F82430CE
S3150000091092F82430C3F340009B07F9D40F4982F8BC
S31500000920220091F8223003F0FF00002BF9D191F854
S3150000093040300A4A60F3C71381F8403092F84030DD
S31500000940DB09FBD192F84200044963F3C71082F831
S31500000950420091F84230DB09FBD138BD0030084037
S31500000960704700BFA0F101000028FBD1704700BF0F
S315000009701F4B204A1B6800FB01F1934213D302F17F
S31500000980854202F5071203F5741302F6834203F655
S31500000990FF03A2FB03231B0DA3FB01314FF0FF3026
S315000009A0F9B1FFF7DFBF4FF47A7210B4A1FB02C4AE
S315000009B01148B0FBF3F34FF0FF3044B9BCFBF3FC36
S315000009C04FEA9C0088B15DF8044BFFF7CBBF9B0054
S315000009D0B1FBF3F1A1FB0212002AF4D1084620B1C3
S315000009E0F1E71846002BDCD170475DF8044B7047E1
S315000009F0B004002000127A0000CA9A3B70B50024A9
S31500000A000B4B0C4EB3F82021B3F84051ADB2154054
S31500000A1025FA04F3DB0704D556F82430E0B203B117
S31500000A2098470134102CF3D1014BA3F8305170BD17
S31500000A30006000405C04002010B5032084B000F084
S31500000A405FF84FF0FF326FF0FF011148114B048839
S31500000A509964CDE9012203921CB16FF001031A4695
S31500000A6001930C490C4B0A67C3F88022029A0320B3
S31500000A704A67C3F88422039A8A67C3F8882200F07B
S31500000A800FF814B1054BC3F8004304B010BD00BF06
S31500000A90A80D00000080004000E100E0006000407A
S31500000AA0EFF31081012383F31088124B33F81020E3
S31500000AB092B22AB133F81020013A92B223F81020EC
S31500000AC033F810309BB293B910B40B4A0B4CB2F802
S31500000AD0FE3334F810009BB243F4254323EA0003A7
S31500000AE0A2F8FE3381F310885DF8044B704781F35A
S31500000AF010887047A404002000E00140AC0D0000FF
S31500000B0030B4EFF31081012383F310880E4A32F8D4
S31500000B1010309BB26BB90D4C0D4DB4F8FE3335F861
S31500000B2010C09BB243EA0C0343F425439BB2A4F8DE
S31500000B30FE3332F8103001339BB222F8103081F3C5
S31500000B40108830BC704700BFA404002000E00140BC
S31500000B50AC0D000000BE704708B500F035F8FFF791
S31500000B600FFBFEE7F8B5174F05463E68A6B17C6851
S31500000B7006EB460604EB860602E00C34B4420BD0C4
S31500000B80637AAB42F9D1D4E900020021121A0C347F
S31500000B9000F07AF8B442F3D1BE6896B1FC6804EB73
S31500000BA0061602E01034A6420BD0637BAB42F9D1A5
S31500000BB0D4E90002A168121A103400F06DF8A642BA
S31500000BC0F3D1F8BD400D00004FF47001274B284AC1
S31500000BD070B50020C3F888109A60FFF7B5FAFFF7E2
S31500000BE0E3FD0120FFF7B0FA224B83F30A880020C9
S31500000BF0FFF7B8FFFFF7C2FDFFF774FE0320FFF70C
S31500000C007FFF00234FF6FF701B4903F108020133F3
S31500000C10092B21F81200F8D100240320FFF740FF2A
S31500000C200320FFF76DFF154B03205C609C60DC60C2
S31500000C301C61FFF735FF0220FFF786FA0120FFF758
S31500000C4091FF0F4D0F4B5B1BA3424FEAA30605DD39
S31500000C5055F8043B01349847A642F9DCFFF7ECFE51
S31500000C60BDE870400020FFF77BBE00BF00ED00E04E
S31500000C700000000000000020000D084000000E40AB
S31500000C80100E0000140E000002440346934200D1E9
S31500000C90704703F8011BF9E70A44431E914200D14D
S31500000CA0704710B511F8014B914203F8014FF9D185
S31500000CB010BD000002000000102700000000000028
S31500000CC08813000003FFDF000000000000000000A2
S31500000CD0D40C00000100000000000000000000002D
S31500000CE000000000000000000000000000000000FE
S31500000CF0000000000000FFFFDFDF00000000000032
S31500000D0000000000000000000000000000000000DD
S31500000D100000000003000000200D0000000000009D
S31500000D2000000100080100000000010000030000AF
S31500000D30000001030304000002040304040400008D
S31500000D4002000000900D000003000000600D00008E
S31500000D5001000000580D00000000002000000020E7
S31500000D6000000020000000200000006000010C03CD
S31500000D700000002000000020000000080000020320
S31500000D8000000020000000204000000000000103D9
S31500000D9000000020000000200000000318040020CE
S31500000DA0B40400200000000300000000010002005F
S31500000DB008001000200000004275696C74207769F5
S31500000DC074682052656E6573617320416476616E46
S31500000DD063656420466C657869626C6520536F664E
S31500000DE07477617265205061636B61676520766513
S31500000DF07273696F6E20362E312E3000362E312EEC
S30D00000E003000000000000106AD
S30900000E08F8B500BF74
S30900000E0CF8B500BF70
S30900000E10AD0000002B
S30900000E14850000004F
S3090100A100FFFFFFFF58
S3090100A200FFFDFFFF59
S70500000B5996
