S00E0000395F515350492E7372656341
S3150000000060040020FD0B00008D0A0000F90B0000C3
S31500000010F90B0000F90B0000F90B0000F90B0000CA
S31500000020000000000000000000000000F90B0000C6
S31500000030F90B000000000000F90B0000F90B0000AE
S315000000400400002000000000A00500200806002093
S315000000507006002000000000000000000000000004
S31500000060000000000000000000000000000000008A
S31500000070000000000000000000000000000000007A
S31500000080000000000000000000000000000000006A
S315000000900348044B834202D0034B03B11847704711
S315000000A0500000205000002000000000064B0749C9
S315000000B0C91A891048BF0131491003D0044B0BB14E
S315000000C001481847704700BF50000020500000202C
S315000000D00000000010B5064C237843B9FFF7D8FF9F
S315000000E0044B13B10448AFF300800123237010BD05
S315000000F0780400200000000004A2000108B5054BAA
S315000001001BB105490548AFF30080BDE80840FFF77D
S31500000110CDBF00BF000000007C04002004A2000147
S3150000012000F020B9022800D070470249024800F0CA
S3150000013061BB00BFBC0F000034050020024B034822
S31500000140596800F0FDB900BF700F00003C050020A3
S315000001500022012310B54FF09F0C6FF0540484B0B9
S31500000160ADF808208DF807208DF80A2018481A46A1
S315000001700DF106018DF806C0039400F0C9F918BB0D
S315000001800322134802A900F017F9E8B90123042253
S315000001900F4803A900F0BCF9B0B901220C480DF1D3
S315000001A0070100F009F978B99DF809009DF80810D3
S315000001B09DF8072000049DF80A3040EA01601043CC
S315000001C040EA032004B010BD4FF0FF3004B010BD6C
S315000001D03C05002089B370B5164682B012B90020DE
S315000001E002B070BD0D460322012100F1C040030C90
S315000001F0134C40BA01928DF800108DF80530ADF819
S3150000020006006946204600F045F90028E7D19DF82A
S315000002100030002BF5D10422012309480DEB020121
S3150000022000F076F90028DAD132462946044800F073
S31500000230C3F80028D3D13046D2E70020704700BF6C
S315000002403C050020002900F088802DE9F04F174674
S3150000025083B0002A3DD000F1C04B804689465E46F9
S315000002604FF0010AC0F30B0515443D4C2D0B4FF41E
S3150000027080523146204600F0B3F878B98DF804A0D4
S31500000280204601A900F006F940B99DF80430002B7C
S31500000290F6D1013D6B1C06F58056E8D10123304CA2
S315000002A08DF80430204601A900F0F4F888B99DF8CD
S315000002B00430002BF6D15FFA88F4E319FF2B0AD934
S315000002C0C4F580765A4633464946254800F0A0F9DB
S315000002D068B1002008E03B465A464946204800F0EF
S315000002E097F90028F5D1384603B0BDE8F08F012311
S315000002F01B4D8DF80430284601A900F0CBF80028E4
S31500000300E7D19DF80430002BF5D1A7F580752D199E
S31500000310B0444E44E7D04FF0010A114CB5F5807F4A
S31500000320A94628BF4FF48079314620464B4608F14E
S31500000330C04200F06DF98DF804A0204601A900F036
S31500000340A9F80028C5D19DF80430002BF5D1B5F5E4
S315000003508075C8444E44E1D1C5E70020704700BF10
S315000003603C05002038B5FFF7E9FEFFF7F1FE013046
S3150000037015D00B4C04F1500500F0D8FCC0B244F87F
S31500000380040FAC42F8D1502206491420FFF75AFF59
S31500000390BDE83840502214200349FFF71BBF38BD83
S315000003A0E0040020E40400209404002008B5FFF7D0
S315000003B0B7FE002008BD00BF4AB14FF0C840013A61
S315000003C04B1E1144026903F8012F8B42FAD14FF0FC
S315000003D0C843002001225A615861704706207047C1
S315000003E04FF0C84CF0B40368DCF804589C7C002C31
S315000003F043D04FF0000C5B6903E0A44503F108030A
S3150000040018D05E680CF1010C9642F6D11E884FF0AA
S31500000410C84401236361076801327F7B27616361FA
S31500000420266111D14FF0C843002001225A6158615C
S31500000430F0BC70474FF0C8420123002453610668A0
S31500000440767B166153611461026805F12043D27808
S31500000450194402F00303032B0AD04FF0C843C1F33B
S315000004600740C1F30722C9B218611A611961D9E7B9
S315000004704FF0C8430A0E1A61EFE70123CCF8143097
S315000004800268527BCCF81020CCF81430CCF810401F
S31500000490DAE700BF70B44FF0C842012503460024D6
S315000004A055611E682046B67B16611B6893F806C028
S315000004B01369556123FA0CF32B40546170BC0B7021
S315000004C0704700BF4FF0C84389060020C3F80418E0
S315000004D0704700BF4FF0C8431A6B002061F301025A
S315000004E01A6370470620704703460020D860EFF372
S315000004F01081012383F31088044B5A6842F04002AE
S315000005005A605B6881F31088704700BF004008405E
S315000005104FF0C84C0120CCF8140042B1013A481EF5
S31500000520114410F8012F8842CCF81020F9D123B9D4
S315000005304FF0C8420121516153610020704700BF4E
S31500000540024610B4EFF31084012383F310881E4B88
S31500000550586820F0400058605B6884F310884FF0BC
S31500000560C84300208C69986118625863C3F8040870
S31500000570088840F01000186360789860C878586260
S315000005800B794FF0C840FF2B0EBF4FF47F43023B61
S3150000059043F47F438362237843F0300343608B78D0
S315000005A043F04003036011608B7823B1B3FA83F301
S315000005B0C3F11F03DBB2002004491371C2E9020133
S315000005C05DF8044B704700BF004008404950535146
S315000005D00023026882B011798DF807309DF8070074
S315000005E0FF29107C4FF0C84218BF8B1E4FF0C04148
S315000005F043EA002343F0800393620B78DBB28DF865
S315000006000730936A5B06FCD5002002B0704700BF36
S315000006104FF0C84C30B50125DCF80448CCF814502E
S3150000062004F1204E04687244647BCCF81040CCF888
S3150000063014500468C2F30745247BCCF810400068C8
S31500000640C2F30724C07800F00300032804BF100E8D
S31500000650CCF810004FF0C840D2B2056104610261C7
S315000006603BB10B44013B013911F8012F994202615C
S31500000670FAD14FF0C843002001225A61586130BDBB
S315000006800023026882B011798DF807309DF80700C3
S31500000690FF29507C4FF0C84218BF8B1E4FF0C04157
S315000006A043EA002393620B78DBB28DF80730936A36
S315000006B0C3F380105B06FAD402B070472DE9F84305
S315000006C00388BBB107464FF00008DFF87890002496
S315000006D01B4D4FEAC8067B6835F8022B99198988A5
S315000006E0914209D00134032CF5D13B8808F1010869
S315000006F04345ECD8BDE8F8839B5904F1200203F08A
S31500000700B853B3F1807F19F812300CD0DB09E9D069
S3150000071019F81230012123F08003C82009F812309D
S3150000072000F06EF9DEE7DB09DCD119F812300121A1
S3150000073043F08003C82009F8123000F061F9D1E7D0
S315000007403C10000000300840F8B50646FFF7B6FF3B
S31500000750EFF31082012383F31088234F3B681BB904
S315000007602249CB704023CB703B6801333B6082F358
S315000007701088338823B300211D4D08E01B01134464
S3150000078045F82340328801318BB29A4218D97368F2
S3150000079053F8314003EBC1029288E0034FEA12237B
S315000007A0D2B2EBD502EB031055F820E024F4803CDE
S315000007B02EF4803E45F820E01B0145F820C0DEE718
S315000007C0EFF31082012383F310883B6813B13B6873
S315000007D0013B3B603B681BB980200449CB70C87065
S315000007E082F31088F8BD00BF8C050020000D08407C
S315000007F00008084008B5034B03600846FFF7A4FF4E
S31500000800002008BD54524F50064B074993F8260066
S315000008101A6A51F82030C2F302620449D3400B60D1
S31500000820704700BF00E00140600400209C050020E6
S31500000830704700BFF8B54AF2035001234349444AC2
S31500000840A1F8FE03A2F80431B2F804319BB2002BE2
S31500000850FAD101204FF400454FF0090C3D4CDFF86A
S315000008600CE13D4EC4F804E03C4F0EF1376E3749BB
S315000008700EF5D83EE660C4F814E0A2F80001B860B0
S3150000088038602660A560256191F82620086A54F82C
S315000008902220334EC0F30260C240326081F8133426
S315000008A081F8A2C091F880341BB991F88134990778
S315000008B046D0264D95F88034002B36D00022234BA7
S315000008C083F8812483F880240023204981F832307C
S315000008D091F83C301A07FBD54FF4985000231B4A79
S315000008E0088581F82A3092F83C309B06FBD5032018
S315000008F005231749F12581F81C011A49116282F86E
S31500000900263092F82630106A54F82310C0F302609D
S31500000910C14031600124F0204FF42541124B1D7374
S315000009201C721873A2F8FE13F8BD0121C82085F8C1
S31500000930801400F065F895F88034012BFBD1BDE7F3
S315000009404FF47A70FFF774FFBEE700BF00E0014086
S3150000095000C0014060040020002D310100700040FD
S315000009609C050020211200200020004000127A0081
S3150000097038B500251C4C0121C82084F8285000F009
S315000009803FF884F8245094F82430002BFBD194F8D7
S315000009902430154A43F0020384F8243092F82430B8
S315000009A0C3F340009B07F9D40F4982F8220091F85F
S315000009B0223003F0FF00002BF9D191F840300A4AAB
S315000009C060F3C71381F8403092F84030DB09FBD161
S315000009D092F84200044963F3C71082F8420091F886
S315000009E04230DB09FBD138BD00300840704700BFFC
S315000009F000BEFEE7A0F101000028FBD1704700BF52
S31500000A001F4B204A1B6800FB01F1934213D302F1EE
S31500000A10854202F5071203F5741302F6834203F6C4
S31500000A20FF03A2FB03231B0DA3FB01314FF0FF3095
S31500000A30F9B1FFF7DFBF4FF47A7210B4A1FB02C41D
S31500000A401148B0FBF3F34FF0FF3044B9BCFBF3FCA5
S31500000A504FEA9C0088B15DF8044BFFF7CBBF9B00C3
S31500000A60B1FBF3F1A1FB0212002AF4D1084620B132
S31500000A70F1E71846002BDCD170475DF8044B704750
S31500000A809C05002000127A0000CA9A3B70B500242B
S31500000A900B4B0C4EB3F82021B3F84051ADB21540C4
S31500000AA025FA04F3DB0704D556F82430E0B203B187
S31500000AB098470134102CF3D1014BA3F8305170BD87
S31500000AC0006000404C05002010B5032084B000F003
S31500000AD05FF84FF0FF326FF0FF011148114B0488A9
S31500000AE09964CDE9012203921CB16FF001031A4605
S31500000AF001930C490C4B0A67C3F88022029A032023
S31500000B004A67C3F88422039A8A67C3F8882200F0EA
S31500000B100FF814B1054BC3F8004304B010BD00BF75
S31500000B20AC1000000080004000E100E000600040E2
S31500000B30EFF31081012383F31088124B33F8102052
S31500000B4092B22AB133F81020013A92B223F810205B
S31500000B5033F810309BB293B910B40B4A0B4CB2F871
S31500000B60FE3334F810009BB243F4254323EA000316
S31500000B70A2F8FE3381F310885DF8044B704781F3C9
S31500000B80108870479005002000E00140B01000007A
S31500000B9030B4EFF31081012383F310880E4A32F844
S31500000BA010309BB26BB90D4C0D4DB4F8FE3335F8D1
S31500000BB010C09BB243EA0C0343F425439BB2A4F84E
S31500000BC0FE3332F8103001339BB222F8103081F335
S31500000BD0108830BC704700BF9005002000E001403F
S31500000BE0B010000008B500F0E7F80C2203461A60C2
S31500000BF04FF0FF3008BD00BF00BE704708B500F0DB
S31500000C0035F8FFF7D3FBFEE7F8B5174F05463E6804
S31500000C10A6B17C6806EB460604EB860602E00C34B9
S31500000C20B4420BD0637AAB42F9D1D4E90002002179
S31500000C30121A0C3400F0B8F8B442F3D1BE6896B17B
S31500000C40FC6804EB061602E01034A6420BD0637B68
S31500000C50AB42F9D1D4E90002A168121A103400F0AF
S31500000C60B3F8A642F3D1F8BD441000004FF470016A
S31500000C70274B284A70B50020C3F888109A60FFF702
S31500000C8051FAFFF7D7FD0120FFF74CFA224B83F309
S31500000C900A880020FFF7B8FFFFF7B6FDFFF768FEEA
S31500000CA00320FFF775FF00234FF6FF701B4903F182
S31500000CB008020133092B21F81200F8D10024032081
S31500000CC0FFF736FF0320FFF763FF154B03205C6039
S31500000CD09C60DC601C61FFF72BFF0220FFF722FA05
S31500000CE00120FFF791FF0F4D0F4B5B1BA3424FEA0D
S31500000CF0A30605DD55F8043B01349847A642F9DC06
S31500000D00FFF7E2FEBDE870400020FFF76FBE00BFB0
S31500000D1000ED00E00000000060000020000D08402B
S31500000D2000000E408411000088110000164B10B51B
S31500000D301C68236BB3B9182000F054F802462063F0
S31500000D4020B9124B52211248FFF752FE1149124B9D
S31500000D50C0E90013114B002183600B23838101201E
S31500000D60C2E90401216B0E480B694C690D4A5843D0
S31500000D7002FB0400A3FB0232013340EB0200C1E98F
S31500000D80043020F0004010BD00000020BA10000022
S31500000D90D11000000E33CDAB34126DE6ECDE05004B
S31500000DA02DF451582D7F954C02440346934200D1B1
S31500000DB0704703F8011BF9E7014B1868704700BF3D
S31500000DC000000020704770470A44431E914200D13C
S31500000DD0704710B511F8014B914203F8014FF9D154
S31500000DE010BD0000024B0146186800F025B800BF90
S31500000DF00000002070B50F4E0C460546316811B94B
S31500000E0000F0A6F830602146284600F0A1F8431C01
S31500000E1003D14FF0FF34204670BDC41C24F00304F8
S31500000E20A042F8D0211A284600F092F80130F2D1FB
S31500000E30EFE700BFE00600202DE9F843CD1C06468B
S31500000E4025F0030508350C2D38BF0C25002D01DBD8
S31500000E50A94204D90C2333600020BDE8F883DFF8EB
S31500000E60D48000F069F8D8F800301C4644BB294607
S31500000E703046FFF7BFFF431C044658D1D8F8004060
S31500000E802746002F43D1002C4BD0236839463046E5
S31500000E9004EB030900F05CF8814542D12168304635
S31500000EA06D1A2946FFF7A6FF01303AD023682B4476
S31500000EB02360D8F800305A6862BBC8F800700FE0AB
S31500000EC02268521B20D40B2A17D96119A342256028
S31500000ED018BF5960636808BFC8F8001062514B60BC
S31500000EE0304600F02FF804F10B00231D20F0070018
S31500000EF0C21A1CBF1B1AA350AFE76268A3420CBFFD
S31500000F00C8F800205A60EBE723466468AEE73C4623
S31500000F107F68B6E71A465B68A342FBD1002353609D
S31500000F20DEE70C233046336000F00CF894E70560EA
S31500000F30D6E700BFE40600200148FFF743BF00BF25
S31500000F40DC0600200148FFF73EBF00BFDC0600209C
S31500000F5038B50023054D044608462B60FFF742FED0
S31500000F60431C02D12B6803B1236038BDD80600208C
S31500000F703C0500207C0F0000081000000000050260
S31500000F80FF000000000100000206050020FF04002B
S31500000F909C0F0000980F00000300000020000000D6
S31500000FA0001000005200000000800000D800000081
S31500000FB000000100C7000000FFFFFFFF080000005F
S31500000FC0C80F000000000000000001110001000031
S31500000FD000000111010100000000011102010000E2
S31500000FE000000111030100000000011104010000CE
S31500000FF00000010008010000000001110C010000C2
S31500001000000001000003000041050000110500007A
S31500001010B9030000DD030000D5040000110600003E
S31500001020E103000095040000D105000081060000E0
S31500001030C5040000E5040000E904000002040304FE
S3150000104004040000020000009410000003000000E9
S3150000105064100000010000005C1000006000002029
S31500001060600000200000002000000020000000605A
S3150000107000010C0300000020000000200000000812
S315000010800000020300000020500000204000000085
S315000010900000010350000020600000200000000353
S315000010A078040020E806002000000003000000008D
S315000010B0010002000800100020005245454E542051
S315000010C06D616C6C6F6320737563636565646564DD
S315000010D0002F646174612F6A656E6B696E732F777A
S315000010E06F726B73706163652F474E552D746F6F0A
S315000010F06C636861696E2F61726D2D31332F737267
S31500001100632F6E65776C69622D63796777696E2FD9
S315000011106E65776C69622F6C6962632F7374646C99
S3150000112069622F72616E642E630000004275696CFD
S315000011307420776974682052656E65736173204107
S315000011406476616E63656420466C657869626C6579
S3150000115020536F667477617265205061636B6167B7
S31500001160652076657273696F6E20362E312E3000DB
S31100001170362E312E300000000000010673
S3090000117CF8B500BFFD
S30900001180F8B500BFF9
S30900001184FD00000064
S30900001188D500000088
S3090100A100FFFFFFFF58
S3090100A200FFFDFFFF59
S70500000BFDF2
