S00D0000375F4441432E73726563B9
S3150000000000040020E508000089070000E108000060
S31500000010E1080000E1080000E1080000E108000036
S31500000020000000000000000000000000E1080000E1
S31500000030E108000000000000E1080000E1080000FF
S315000000400348044B834202D0034B03B11847704761
S3150000005004A2000104A2000100000000064B0749AB
S31500000060C91A891048BF0131491003D0044B0BB19E
S3150000007001481847704700BF04A2000104A200010E
S315000000800000000010B5064C237843B9FFF7D8FFEF
S31500000090044B13B10448AFF300800123237010BD55
S315000000A0180400200000000004A2000108B5054B5A
S315000000B01BB105490548AFF30080BDE80840FFF7CE
S315000000C0CDBF00BF000000001C04002004A20001F8
S315000000D00146014800F072B93C04002008B5074902
S315000000E0074800F00DF9064800F09AF900B908BD76
S315000000F00348BDE8084000F069B900BFC80E00001B
S315000001003C040020DFED066A9FED067AC0EE267AF3
S3150000011067EE877AFCEEE77A17EE903A98B2704768
S315000001203333534000F07F4500F00EB8022800D06C
S3150000013070470249024800F0D9B800BFD80E000047
S31500000140340400200000000038B515A5D5E90045A7
S315000001502DED048B9FED108AFFF7C0FF9FED0F9AE0
S31500000160F0EE488A18EE100A00F0B8FD22462B463B
S3150000017000F08AFE002808FE288AB0EE480AFFF73B
S31500000180C1FFFFF7A5FF4FF47A71012038EE098A07
S3150000019000F0B4FAE6E700BF00000000CDCCCC3D8D
S315000001A06666666666660A4008B5FFF7BDFF00200C
S315000001B008BD00BF2DE9F8430388BBB107464FF0E1
S315000001C00008DFF8789000241B4D4FEAC8067B68CC
S315000001D035F8022B99198988914209D00134032CEC
S315000001E0F5D13B8808F101084345ECD8BDE8F88312
S315000001F09B5904F1200203F0B853B3F1807F19F83C
S3150000020012300CD0DB09E9D019F81230012123F0A5
S315000002108003C82009F8123000F070FADEE7DB0927
S31500000220DCD119F81230012143F08003C82009F807
S31500000230123000F063FAD1E7FC0E000000300840EF
S31500000240F8B50646FFF7B6FFEFF31082012383F3F6
S315000002501088234F3B681BB92249CB704023CB70D3
S315000002603B6801333B6082F31088338823B3002157
S315000002701D4D08E01B01134445F823403288013127
S315000002808BB29A4218D9736853F8314003EBC10216
S315000002909288E0034FEA1223D2B2EBD502EB0310A9
S315000002A055F820E024F4803C2EF4803E45F820E00A
S315000002B01B0145F820C0DEE7EFF31082012383F32C
S315000002C010883B6813B13B68013B3B603B681BB938
S315000002D080200449CB70C87082F31088F8BD00BF37
S315000002E08C040020000D08400008084008B5034BA8
S315000002F003600846FFF7A4FF002008BD54524F5084
S3150000030030B42B4A0346C2600A7802F001024270FA
S315000003100A785208EFF3108C012080F31088254CE0
S31500000320C2F11402E56800FA02F225EA0202E2606E
S31500000330E2688CF31088EFF3108480F31088587805
S3150000034000282FD1DD682A7960F386122A7184F39A
S3150000035010884868DC68C278D201D2B26271DA6865
S315000003609279B2B94A78A2B1EFF3108C012585F3E0
S315000003701088104AD46824F48034D460D2688CF390
S3150000038010888024DA6802F5805282F8C050DA6854
S3150000039094714078084A187209785A6019700020DA
S315000003A030BC7047D868027922F080020271CEE72D
S315000003B00010174000400840004341440346DA68F5
S315000003C05B78002022F81310704700BF0346EFF356
S315000003D01080012282F310885A788AB910B4DC683A
S315000003E0217962F386112171DC68217A62F3861124
S315000003F0217280F31088002058605DF8044B704726
S31500000400D9680A7922F080020A71D9680A7A22F03C
S3150000041080020A7280F3108800205860704700BF7F
S3150000042038B5037A0446002B3ED00021C3684278D3
S3150000043033F8125023F81210ADB2EFF310800123F7
S3150000044083F310886278002A43D0E268137961F357
S31500000450C7131371E268137F43F080031377E268D2
S31500000460137A43F080031372E268137943F0800332
S31500000470137180F310880121042000F03FF9EFF397
S315000004801081012383F310886278002A36D1E06850
S31500000490037F62F38613037781F31088E36862783B
S315000004A0002023F8125038BDEFF31083012282F3A7
S315000004B010884278C1683AB10A7942F080020A711E
S315000004C083F31088002038BD0A7942F040020A7191
S315000004D0F6E7E1680B7962F386130B71E268137F26
S315000004E043F040031377E268137A43F04003137234
S315000004F0E268137943F040031371BAE7E268137FA9
S3150000050023F080031377C7E7064B074993F82600C5
S315000005101A6A51F82030C2F302620449D3400B60D4
S31500000520704700BF00E00140000400209C0400204A
S31500000530704700BFF8B54AF2035001234349444AC5
S31500000540A1F8FE03A2F80431B2F804319BB2002BE5
S31500000550FAD101204FF400454FF0090C3D4CDFF86D
S315000005600CE13D4EC4F804E03C4F0EF1376E3749BE
S315000005700EF5D83EE660C4F814E0A2F80001B860B3
S3150000058038602660A560256191F82620086A54F82F
S315000005902220334EC0F30260C240326081F8133429
S315000005A081F8A2C091F880341BB991F8813499077B
S315000005B046D0264D95F88034002B36D00022234BAA
S315000005C083F8812483F880240023204981F832307F
S315000005D091F83C301A07FBD54FF4985000231B4A7C
S315000005E0088581F82A3092F83C309B06FBD503201B
S315000005F005231749F12581F81C011A49116282F871
S31500000600263092F82630106A54F82310C0F30260A0
S31500000610C14031600124F0204FF42541124B1D7377
S315000006201C721873A2F8FE13F8BD0121C82085F8C4
S31500000630801400F063F895F88034012BFBD1BDE7F8
S315000006404FF47A70FFF774FFBEE700BF00E0014089
S3150000065000C0014000040020002D31010070004060
S315000006609C040020211200200020004000127A0085
S3150000067038B500251C4C0121C82084F8285000F00C
S315000006803DF884F8245094F82430002BFBD194F8DC
S315000006902430154A43F0020384F8243092F82430BB
S315000006A0C3F340009B07F9D40F4982F8220091F862
S315000006B0223003F0FF00002BF9D191F840300A4AAE
S315000006C060F3C71381F8403092F84030DB09FBD164
S315000006D092F84200044963F3C71082F8420091F889
S315000006E04230DB09FBD138BD00300840704700BFFF
S315000006F0A0F101000028FBD1704700BF1F4B204A24
S315000007001B6800FB01F1934213D302F1854202F507
S31500000710071203F5741302F6834203F6FF03A2FBE6
S3150000072003231B0DA3FB01314FF0FF30F9B1FFF797
S31500000730DFBF4FF47A7210B4A1FB02C41148B0FBBC
S31500000740F3F34FF0FF3044B9BCFBF3FC4FEA9C00D7
S3150000075088B15DF8044BFFF7CBBF9B00B1FBF3F10B
S31500000760A1FB0212002AF4D1084620B1F1E718468F
S31500000770002BDCD170475DF8044B70479C040020C9
S3150000078000127A0000CA9A3B70B500240B4B0C4E3F
S31500000790B3F82021B3F84051ADB2154025FA04F361
S315000007A0DB0704D556F82430E0B203B1984701348C
S315000007B0102CF3D1014BA3F8305170BD00600040FE
S315000007C04C04002010B5032084B000F05FF84FF011
S315000007D0FF326FF0FF011148114B04889964CDE98F
S315000007E0012203921CB16FF001031A4601930C49D2
S315000007F00C4B0A67C3F88022029A03204A67C3F8A3
S315000008008422039A8A67C3F8882200F00FF814B18D
S31500000810054BC3F8004304B010BD00BF6C0F0000C9
S315000008200080004000E100E000600040EFF310812E
S31500000830012383F31088124B33F8102092B22AB1A9
S3150000084033F81020013A92B223F8102033F8103012
S315000008509BB293B910B40B4A0B4CB2F8FE3334F882
S3150000086010009BB243F4254323EA0003A2F8FE33AB
S3150000087081F310885DF8044B704781F31088704748
S315000008809004002000E00140700F000030B4EFF348
S315000008901081012383F310880E4A32F810309BB280
S315000008A06BB90D4C0D4DB4F8FE3335F810C09BB244
S315000008B043EA0C0343F425439BB2A4F8FE3332F813
S315000008C0103001339BB222F8103081F3108830BC0F
S315000008D0704700BF9004002000E00140700F000048
S315000008E000BE704708B500F035F8FFF75DFCFEE77F
S315000008F0F8B5174F05463E68A6B17C6806EB460676
S3150000090004EB860602E00C34B4420BD0637AAB42A9
S31500000910F9D1D4E900020021121A0C3400F0BEFA13
S31500000920B442F3D1BE6896B1FC6804EB061602E049
S315000009301034A6420BD0637BAB42F9D1D4E9000256
S31500000940A168121A103400F0B1FAA642F3D1F8BD2C
S31500000950040F00004FF47001274B284A70B50020A1
S31500000960C3F888109A60FFF7E1FBFFF7E3FD01206B
S31500000970FFF7DCFB224B83F30A880020FFF7B8FF62
S31500000980FFF7C2FDFFF774FE0320FFF77FFF00238A
S315000009904FF6FF701B4903F108020133092B21F8BA
S315000009A01200F8D100240320FFF740FF0320FFF7D1
S315000009B06DFF154B03205C609C60DC601C61FFF7DB
S315000009C035FF0220FFF7B2FB0120FFF791FF0F4D25
S315000009D00F4B5B1BA3424FEAA30605DD55F8043B0C
S315000009E001349847A642F9DCFFF7ECFEBDE87040FB
S315000009F00020FFF77BBE00BF00ED00E00000000016
S31500000A0000000020000D084000000E40D40F00003A
S31500000A10D80F000081F0004102E000BF83F00043E0
S31500000A2030B54FEA41044FEA430594EA050F08BF83
S31500000A3090EA020F1FBF54EA000C55EA020C7FEA47
S31500000A40645C7FEA655C00F0E2804FEA5454D4EBC4
S31500000A505555B8BF6D420CDD2C4480EA020281EA8E
S31500000A60030382EA000083EA010180EA020281EAC6
S31500000A700303362D88BF30BD11F0004F4FEA013118
S31500000A804FF4801C4CEA113102D0404261EB410127
S31500000A9013F0004F4FEA03334CEA133302D05242AD
S31500000AA063EB430394EA050F00F0A780A4F1010469
S31500000AB0D5F1200E0DDB02FA0EFC22FA05F28018A3
S31500000AC041F1000103FA0EF2801843FA05F3594189
S31500000AD00EE0A5F120050EF1200E012A03FA0EFC08
S31500000AE028BF4CF0020C43FA05F3C01851EBE37132
S31500000AF001F0004507D54FF0000EDCF1000C7EEB4F
S31500000B0000006EEB0101B1F5801F1BD3B1F5001F8C
S31500000B100CD349085FEA30004FEA3C0C04F10104AB
S31500000B204FEA445212F5800F80F09A80BCF1004FD4
S31500000B3008BF5FEA500C50F1000041EB045141EA56
S31500000B40050130BD5FEA4C0C404141EB0101013C1F
S31500000B5028BFB1F5801FE9D291F0000F04BF01460E
S31500000B600020B1FA81F308BF2033A3F10B03B3F1E0
S31500000B7020020CDA0C3208DD02F1140CC2F10C0270
S31500000B8001FA0CF021FA02F10CE002F11402D8BFCE
S31500000B90C2F1200C01FA02F120FA0CFCDCBF41EA9A
S31500000BA00C019040E41AA2BF01EB0451294330BD69
S31500000BB06FEA04041F3C1CDA0C340EDC04F1140446
S31500000BC0C4F1200220FA04F001FA02F340EA03001D
S31500000BD021FA04F345EA030130BDC4F10C04C4F163
S31500000BE0200220FA02F001FA04F340EA0300294643
S31500000BF030BD21FA04F0294630BD94F0000F83F48D
S31500000C00801306BF81F480110134013D4EE77FEA6F
S31500000C10645C18BF7FEA655C29D094EA050F08BFBB
S31500000C2090EA020F05D054EA000C04BF194610469C
S31500000C3030BD91EA030F1EBF0021002030BD5FEAE0
S31500000C40545C05D14000494128BF41F0004130BD08
S31500000C5014F580043CBF01F5801130BD01F000455C
S31500000C6045F0FE4141F470014FF0000030BD7FEACF
S31500000C70645C1ABF194610467FEA655C1CBF0B46CA
S31500000C80024650EA013406BF52EA033591EA030FE1
S31500000C9041F4002130BD00BF90F0000F04BF0021D9
S31500000CA0704730B54FF4806404F132044FF000050C
S31500000CB04FF0000150E700BF90F0000F04BF002185
S31500000CC0704730B54FF4806404F1320410F00045EB
S31500000CD048BF40424FF000013EE700BF42004FEAE6
S31500000CE0E2014FEA31014FEA02701FBF12F07F4363
S31500000CF093F07F4F81F06051704732F07F4208BF1A
S31500000D00704793F07F4F04BF41F40021704730B520
S31500000D104FF4607401F0004521F000411CE700BF6C
S31500000D2050EA010208BF704730B54FF000050AE0EF
S31500000D3050EA010208BF704730B511F0004502D5F0
S31500000D40404261EB41014FF4806404F132045FEAF2
S31500000D50915C3FF4D8AE4FF003025FEADC0C18BF9B
S31500000D6003325FEADC0C18BF033202EBDC02C2F18D
S31500000D70200300FA03FC20FA02F001FA03FE40EA1F
S31500000D800E0021FA02F11444BDE600BF4FF0FF3C0D
S31500000D9006E000BF4FF0010C02E000BF4FF0010C6F
S31500000DA04DF804CD4FEA410C7FEA6C5C4FEA430CE8
S31500000DB018BF7FEA6C5C1BD001B050EA410C0CBF37
S31500000DC052EA430C91EA030F02BF90EA020F002099
S31500000DD0704710F1000F91EA030F58BF994208BF00
S31500000DE090422CBFD8176FEAE37040F001007047BD
S31500000DF04FEA410C7FEA6C5C02D150EA013C07D114
S31500000E004FEA430C7FEA6C5CD6D152EA033CD3D05E
S31500000E105DF8040B704700BF8446104662468C4658
S31500000E201946634600E000BF01B5FFF7B7FF00288B
S31500000E3048BF10F1000F01BD4DF808EDFFF7F4FFB4
S31500000E400CBF012000205DF808FB00BF4DF808ED3F
S31500000E50FFF7EAFF34BF012000205DF808FB00BF62
S31500000E604DF808EDFFF7E0FF94BF012000205DF884
S31500000E7008FB00BF4DF808EDFFF7CEFF94BF012039
S31500000E8000205DF808FB00BF4DF808EDFFF7C4FF32
S31500000E9034BF012000205DF808FB00BF0244034672
S31500000EA0934200D1704703F8011BF9E70A44431E39
S31500000EB0914200D1704710B511F8014B914203F8E9
S31500000EC0014FF9D110BD000000000000D00E000057
S31500000ED0000000000000000003000000E40E000017
S31500000EE000000000008000000E000000000001006D
S31500000EF008010000000001000003000002040304D2
S31500000F000404000002000000540F0000030000006B
S31500000F10240F0000010000001C0F0000000000204C
S31500000F2000000020000000200000002000000060FB
S31500000F3000010C0300000020000000200000000853
S31500000F400000020300000020000000204000000016
S31500000F500000010300000020000000200000000344
S31500000F6018040020A0040020000000030000000078
S31500000F700100020008001000200000004275696CA4
S31500000F807420776974682052656E657361732041B9
S31500000F906476616E63656420466C657869626C652B
S31500000FA020536F667477617265205061636B616769
S31500000FB0652076657273696F6E20362E312E30008D
S31100000FC0362E312E300000000000010625
S30900000FCCF8B500BFAF
S30900000FD0F8B500BFAB
S30900000FD4AD00000066
S30900000FD8850000008A
S3090100A100FFFFFFFF58
S3090100A200FFFDFFFF59
S705000008E50D
