S00D0000385F4932432E73726563C2
S3150000000000040020E91000003D0F0000E51000008C
S31500000010E5100000E5100000E5100000E510000006
S31500000020000000000000000000000000E5100000D5
S31500000030E510000000000000E5100000E5100000DB
S31500000040A5070000D9080000FD090000DD0A000030
S315000000500348044B834202D0034B03B11847704751
S3150000006004A2000104A2000100000000064B07499B
S31500000070C91A891048BF0131491003D0044B0BB18E
S3150000008001481847704700BF04A2000104A20001FE
S315000000900000000010B5064C237843B9FFF7D8FFDF
S315000000A0044B13B10448AFF300800123237010BD45
S315000000B0180400200000000004A2000108B5054B4A
S315000000C01BB105490548AFF30080BDE80840FFF7BE
S315000000D0CDBF00BF000000001C04002004A20001E8
S315000000E000F05AB8022800D070470249024800F0D2
S315000000F003B900BF7C12000034040020102300B5B1
S315000001000D4983B00D488DF8073000F013FB10B190
S3150000011003B05DF804FB0346012208480DF1070110
S3150000012000F012F90028F3D14FF47A71B42000F0F0
S31500000130BFFE03B05DF804FB441200003C0400203F
S3150000014010B5002482B002222346104801A9ADF85A
S31500000150044000F05FF910B1204602B010BD4FF424
S315000001607A71B42000F0A4FEBDF80430DFED086A11
S315000001705BBA9BB207EE903AB8EEE77AC7EE267AFC
S31500000180FCEEE77A17EE900A02B010BD3C040020A0
S315000001909A99993F704700BF10B5FFF7AFFF044C1F
S315000001A0FFF7CEFF2146012000F082FEF8E700BFF0
S315000001B040420F0008B5FFF793FF002008BD00BFBF
S315000001C02DE9F8430388BBB107464FF00008DFF876
S315000001D0789000241B4D4FEAC8067B6835F8022B41
S315000001E099198988914209D00134032CF5D13B88AD
S315000001F008F101084345ECD8BDE8F8839B5904F1A2
S31500000200200203F0B853B3F1807F19F812300CD0F6
S31500000210DB09E9D019F81230012123F08003C82048
S3150000022009F8123000F044FEDEE7DB09DCD119F8EC
S315000002301230012143F08003C82009F8123000F083
S3150000024037FED1E7B012000000300840F8B5064688
S31500000250FFF7B6FFEFF31082012383F31088234FD5
S315000002603B681BB92249CB704023CB703B680133F6
S315000002703B6082F31088338823B300211D4D08E0CC
S315000002801B01134445F82340328801318BB29A4250
S3150000029018D9736853F8314003EBC1029288E00322
S315000002A04FEA1223D2B2EBD502EB031055F820E049
S315000002B024F4803C2EF4803E45F820E01B0145F8EE
S315000002C020C0DEE7EFF31082012383F310883B683A
S315000002D013B13B68013B3B603B681BB98020044976
S315000002E0CB70C87082F31088F8BD00BFBC04002034
S315000002F0000D08400008084008B5034B0360084697
S31500000300FFF7A4FF002008BD54524F5030B5836B51
S3150000031083B004460A466D46A3B193E8030085E818
S315000003200300E16B1A7119601846636B9847A36B5B
S315000003301BB195E8030083E80300002384F82B3003
S3150000034003B030BD2B46ECE790F808C04161BCF124
S31500000350010F80F82A30826108D10021436880F8B5
S3150000036026C05B0080F8243080F82510002380F832
S31500000370293090F82C30016943B9D1F81032DB07E7
S3150000038042D50323C1F8E83182690169002330B4FC
S3150000039090F82640C261026880F82B3080F827402A
S315000003A080F82D3080F8283080F82E30036280F8EF
S315000003B02F3080F83030526A144D92F800C0144C39
S315000003C0BCF1010F92F801C014BF2022212242EA9B
S315000003D00C12C1F890200269C2F8D4510269C2F821
S315000003E0D84190F82C2042B10321026980F82C30C4
S315000003F0C2F8E411002030BC7047012203690020D6
S31500000400C3F8402130BC7047082070471301110023
S315000004101300110090F808C04161BCF1010F80F88B
S315000004202A3082610AD10021436880F826C05B0029
S3150000043043F0010380F8243080F82510012380F86A
S31500000440293090F82C30016943B9D1F81032DB0716
S3150000045042D50323C1F8E83182690169002330B42B
S3150000046090F82640C261026880F82B3080F8274059
S3150000047080F82D3080F8283080F82E30036280F81E
S315000004802F3080F83030526A144D92F800C0144C68
S31500000490BCF1010F92F801C014BF2022212242EACA
S315000004A00C12C1F890200269C2F8D4510269C2F850
S315000004B0D84190F82C2042B10321026980F82C30F3
S315000004C0C2F8E411002030BC704701220369002005
S315000004D0C3F8402130BC7047082070471301110053
S315000004E01300110001232DE9F04F00240269136166
S315000004F002695461026913620269136A13F0010307
S31500000500FBD10468DFF820C2656A4FF0030BAC78B4
S31500000510DFF8188204F007041467B5F803200469AD
S3150000052052BA92B2626702680469526ADFF800E260
S315000005301678012E567814BF2022212242EA06128E
S31500000540C4F89020026807695468526AA4EB0C0943
S31500000550B9FA89F992F80CA04FEA59194FEA893984
S3150000056049EA0A3949F4817949F00109C7F86090E6
S3150000057095F8069095F805A007694FEAC93949EA42
S315000005800A29C7F888900769634CC7F8D4810769B8
S31500000590624EC7F8D8E10769614AC7F8E4B107694E
S315000005A0C7F8E8B191F9117091F80DE004EB07086E
S315000005B04FEA0E1E5FFA8EFE88F800E346F8270023
S315000005C007F1C00E52F82E8063F3104842F82E80D1
S315000005D052F82EE0BFF35F8F4FF0010E4FEA571827
S315000005E04FEA880807F01F0708F1604808F56148D8
S315000005F00EFA07F7C8F88071C8F8007091F80D80F8
S3150000060091F90F704FEA081804EB07095FFA88F8AA
S3150000061089F8008346F8270007F1C00852F82890A9
S3150000062063F3104942F8289052F82880BFF35F8F91
S315000006304FEA57184FEA880807F01F0708F1604885
S315000006400EFA07F708F56148C8F88071C8F8007017
S3150000065091F80D8091F910704FEA081804EB07091C
S315000006605FFA88F889F8008346F8270007F1C00882
S3150000067052F8289063F3104942F8289052F82880DF
S31500000680BFF35F8F4FEA57184FEA880807F01F0736
S3150000069008F160480EFA07F708F56148C8F8807156
S315000006A0C8F800704F7B91F90E103F010C44FFB261
S315000006B084F8007346F8210001F1C00452F8246062
S315000006C063F3104642F8246052F82430BFF35F8F7C
S315000006D04B099B0001F01F0103F160430EFA01F183
S315000006E003F56143C3F8801119604FF000410369B7
S315000006F00C4A59610368A9685B68B2FBF1F263456D
S3150000070014BF4FF496737823B3FBF2F301690633F3
S31500000710CB67BDE8F08F00BF00E100E0C004002019
S315000007200060004000CA9A3B40420F0010011100D1
S315000007301000110070B50025174A016002618A6831
S3150000074042600A7B0272CA6942630A6AC0E90E52B3
S31500000750EFF3108C012282F310880B78C3F10403A7
S315000007609A400E4B5E6826EA02025A605B688CF37A
S315000007701088FFF7B7FEC0E90755094B80F82950E6
S31500000780456180F82A50856180F82B50C36080F857
S315000007902C50284670BD00BF00F0114000400840B4
S315000007A04243494910B582B0EFF30383103B484AF0
S315000007B05BB2C03352F8231021F4803142F8231083
S315000007C052F82330EFF30383424A103B5BB252F8F0
S315000007D0234094F82D30EBB9A369022B15D9E369B0
S315000007E0012B03D106222369C3F8A02023685B6A84
S315000007F01B7B002B3BD101232269D2F858210092A2
S31500000800009A84F82D3002B010BD02222369C3F885
S31500000810A420E4E7E369002BF5D02268526A127B34
S31500000820FAB9032B226917D0022B25D0012B28D029
S31500000830D2F85821236A019201996269D154D4E908
S3150000084007320132013BC4E90732002BDBD12269B2
S31500000850C2F8A43002B010BD0223C2F8A430226947
S31500000860E6E705212046FFF751FDE369D9E70521B3
S315000008702046FFF74BFDBEE70623C2F8A0302269EB
S31500000880D6E794F82A1001F0FF00A1B10221042056
S31500000890C2F8E4112269C2F8A0002269C2F8401128
S315000008A02169D1F8D82122F48012C1F8D821226911
S315000008B084F82C30BCE70421D2F8D03160F3410330
S315000008C0C2F8D0312369C3F840112269B0E700BFEE
S315000008D000600040C004002010B5EFF30383103B16
S315000008E0434A5BB2C03352F8231021F4803142F8F8
S315000008F0231052F82330EFF303833E4A103B5BB2DA
S3150000090052F8234094F82730002B3FD194F8293031
S31500000910002B3AD123685B6A1B7B2BB194F82B30F2
S3150000092013B9236A002B5DD1E3692269002B41D1FB
S315000009300221C2F8E811C023216901E0013B03D07E
S31500000940D1F8E821D207F9D42368294A93F910305F
S3150000095003F1C00152F8210020F4803042F8210052
S3150000096052F82120BFF35F8F01215A09224803F074
S315000009701F03603201FA03F340F822302269D2F8ED
S31500000980D83143F48073C2F8D83110BD94F82630BC
S31500000990032B1ED0236994F82420C3F8582194F819
S315000009A0282094F827300132013B84F8282084F867
S315000009B0273010BD236A6169CB5CC2F85831D4E98F
S315000009C007320132013BC4E90732002BDDD122692F
S315000009D0AEE794F82830022BDCD194F83030002BA7
S315000009E0D8D110BD05212046FFF790FC9CE700BF3B
S315000009F000600040C004002000E100E038B5EFF3DD
S31500000A000383344A103B5BB252F8234023685B6A87
S31500000A101B7B002B49D194F829301BB194F8273061
S31500000A20012B52D0E3692BB32169C023D1F8D02121
S31500000A3022F48072C1F8D0212169D1F8D82122F49C
S31500000A408072C1F8D821216901E0013B03D0D1F8B9
S31500000A50D821D205F9D4EFF30383103B1E4A5BB2CB
S31500000A60C03352F8231021F4803142F8231052F893
S31500000A70233038BD94F82A20216902F0FF00CAB15C
S31500000A80032502220120C1F8E8512169C1F8E421B9
S31500000A902169C1F840212269D2F8D41163F31451B7
S31500000AA0C2F8D41184F82C00BEE705212046FFF7D2
S31500000AB02DFCB0E70422D1F8D03160F34103C1F830
S31500000AC0D0312369C3F84021AEE794F83030002BCB
S31500000AD0AAD0A7E7C00400200060004070B5EFF37D
S31500000AE00383634A103B5BB252F823000269D2F8D3
S31500000AF0D011D2F8D03101F4881423F4881323F0EE
S31500000B001303C2F8D031CB0634D503695A6A5607A7
S31500000B104ED40024012580F82B50C3F8D841036930
S31500000B20544EC3F8E8410168FFF7DCFC032290F855
S31500000B30263080F82C4080F828308369C46103622F
S31500000B40036980F82A40C3F8D86103692946C3F8C7
S31500000B50E821FFF7DBFBEFF30383103B464A5BB26A
S31500000B60C03352F8231021F4803142F8231052F892
S31500000B70233070BD002C5FD18C070FD590F82B3039
S31500000B80002B43D190F8291003693A4AC1F10301B9
S31500000B90C9B2C3F8D821FFF7B9FBDCE790F82C30CF
S31500000BA023B3CA074AD590F82B30002B42D1E9E788
S31500000BB0002CAED15A6A5507C2F38004DCD5042254
S31500000BC080F82B40C3F8402102680369526A127804
S31500000BD0012A14BF30223122C3F890200269D2F8CC
S31500000BE0D83143F48013C2F8D831B4E790F82930ED
S31500000BF01BB190F82730012B34D0CB07ABD5036857
S31500000C005B6A1B7B002BA6D00421C4E700230322CA
S31500000C10846990F8265004620169164C80F82C30DD
S31500000C20C36180F82A3080F82850C1F8D84103699A
S31500000C30C3F8E8210121AEE703696AE790F8293095
S31500000C40002B88D090F82730012B84D190F83030D3
S31500000C50002B80D003230269C2F8E8310269C2F88A
S31500000C60E43178E790F83030002BC6D0F2E700BFC9
S31500000C70C00400201000110000600040064B074928
S31500000C8093F826001A6A51F82030C2F3026204492A
S31500000C90D3400B60704700BF00E001400004002015
S31500000CA0DC040020704700BFF8B54AF20350012368
S31500000CB05349544AA1F8FE03A2F80431B2F80431AC
S31500000CC09BB2002BFAD101204FF400454FF0090CDE
S31500000CD04D4CDFF84CE14D4EC4F804E04C4F0EF19C
S31500000CE0376E47490EF5D83EE660C4F814E0A2F820
S31500000CF00001B86038602660A560256191F826205D
S31500000D00086A54F82220434EC0F30260C2403260A3
S31500000D1081F8133481F8A2C091F880341BB991F898
S31500000D208134990767D0364D95F88034002B57D01B
S31500000D300022334B83F8812483F880240023304932
S31500000D4081F8323091F83C301A07FBD54FF49850B1
S31500000D5000232B4A088581F82A3092F83C309B06FE
S31500000D60FBD5032005232749F12781F81C012A49D1
S31500000D70F025116282F8263092F82630106A54F86F
S31500000D802310C0F30260C140316004240126842090
S31500000D90224B1B491F731E721D7382F83E4082F858
S31500000DA03E0092F8793043F0400382F8793091F8AA
S31500000DB07930DB09FBD0C52081F8713081F87900E4
S31500000DC091F879300E4A03F0BF0381F8793092F832
S31500000DD07930DB09FBD14FF42543A2F8FE33F8BD89
S31500000DE00121C82085F8801400F062F895F8803457
S31500000DF0012BFBD19CE74FF47A70FFF753FF9DE779
S31500000E0000E0014000C0014000040020002D310137
S31500000E1000700040DC040020211200200020004069
S31500000E2000127A0038B500251C4C0121C82084F830
S31500000E30285000F03DF884F8245094F82430002B14
S31500000E40FBD194F82430154A43F0020384F8243089
S31500000E5092F82430C3F340009B07F9D40F4982F877
S31500000E60220091F8223003F0FF00002BF9D191F80F
S31500000E7040300A4A60F3C71381F8403092F8403098
S31500000E80DB09FBD192F84200044963F3C71082F8EC
S31500000E90420091F84230DB09FBD138BD00300840F2
S31500000EA0704700BFA0F101000028FBD1704700BFCA
S31500000EB01F4B204A1B6800FB01F1934213D302F13A
S31500000EC0854202F5071203F5741302F6834203F610
S31500000ED0FF03A2FB03231B0DA3FB01314FF0FF30E1
S31500000EE0F9B1FFF7DFBF4FF47A7210B4A1FB02C469
S31500000EF01148B0FBF3F34FF0FF3044B9BCFBF3FCF1
S31500000F004FEA9C0088B15DF8044BFFF7CBBF9B000E
S31500000F10B1FBF3F1A1FB0212002AF4D1084620B17D
S31500000F20F1E71846002BDCD170475DF8044B70479B
S31500000F30DC04002000127A0000CA9A3B70B5002437
S31500000F400B4B0C4EB3F82021B3F84051ADB215400F
S31500000F5025FA04F3DB0704D556F82430E0B203B1D2
S31500000F6098470134102CF3D1014BA3F8305170BDD2
S31500000F70006000407C04002070B5032084B000F0BF
S31500000F8087F86FF0FF054FF0FF31254A254C13888F
S31500000F905088002BA5640BBF002601260B466FF078
S31500000FA00103CDE90111039138B3918823F00203BF
S31500000FB059B3D28823F0040322BB019319491A4A74
S31500000FC00B67C2F88032029B03204B67C2F884325B
S31500000FD0039B164C8B67C2F8883200F029F8002371
S31500000FE00F4931F8022B03F1C00001330AB144F86E
S31500000FF02020042BF5D104B070BD90880028D8D1EC
S31500001000D28842B123F00803D7E7D288002AD4D089
S3150000101023F00803D1E7002ECFD10B46CEE700BF61
S31500001020A81200000080004000E100E000600040DF
S31500001030EFF31081012383F31088124B33F810204D
S3150000104092B22AB133F81020013A92B223F8102056
S3150000105033F810309BB293B910B40B4A0B4CB2F86C
S31500001060FE3334F810009BB243F4254323EA000311
S31500001070A2F8FE3381F310885DF8044B704781F3C4
S3150000108010887047D004002000E0014020130000C3
S3150000109030B4EFF31081012383F310880E4A32F83F
S315000010A010309BB26BB90D4C0D4DB4F8FE3335F8CC
S315000010B010C09BB243EA0C0343F425439BB2A4F849
S315000010C0FE3332F8103001339BB222F8103081F330
S315000010D0108830BC704700BFD004002000E00140FB
S315000010E02013000000BE704708B500F035F8FFF782
S315000010F061F8FEE7F8B5174F05463E68A6B17C686D
S3150000110006EB460604EB860602E00C34B4420BD02E
S31500001110637AAB42F9D1D4E900020021121A0C34E9
S3150000112000F07AF8B442F3D1BE6896B1FC6804EBDD
S31500001130061602E01034A6420BD0637BAB42F9D10F
S31500001140D4E90002A168121A103400F06DF8A64224
S31500001150F3D1F8BDB81200004FF47001274B284AAE
S3150000116070B50020C3F888109A60FEF7BBFFFFF742
S315000011709BFD0120FEF7B6FF224B83F30A88002071
S31500001180FFF7B8FFFFF77AFDFFF74CFE0320FFF7E6
S315000011907FFF00234FF6FF701B4903F1080201335E
S315000011A0092B21F81200F8D100240320FFF740FF95
S315000011B00320FFF76DFF154B03205C609C60DC602D
S315000011C01C61FFF735FF0220FEF78CFF0120FFF7B9
S315000011D091FF0F4D0F4B5B1BA3424FEAA30605DDA4
S315000011E055F8043B01349847A642F9DCFFF7C4FEE4
S315000011F0BDE870400020FFF753BE00BF00ED00E0E1
S315000012000000000000000020000D084000000E4015
S31500001210841300008813000002440346934200D161
S31500001220704703F8011BF9E70A44431E914200D1B7
S31500001230704710B511F8014B914203F8014FF9D1EF
S3150000124010BD000000000000A08601002300000081
S31500001250010C000102030000000000000000000075
S3150000126095010000000000006C120000010101F36E
S31500001270F400000080F0FA02000000000400000004
S3150000128088120000000000000000010008010000B4
S315000012900000010000030000000001070704000031
S315000012A00000010708040000DF01E001E601E70194
S315000012B002040304040400000200000008130000F6
S315000012C003000000D812000001000000D012000048
S315000012D00000002000000020000000200000002088
S315000012E00000006000010C03000000200000002048
S315000012F0000000080000020300000020000000209B
S315000013005000000000000103000000200000002043
S315000013100000000318040020E00400200000000381
S315000013200100020008001000200000004275696CF0
S315000013307420776974682052656E65736173204105
S315000013406476616E63656420466C657869626C6577
S3150000135020536F667477617265205061636B6167B5
S31500001360652076657273696F6E20362E312E3000D9
S31100001370362E312E300000000000010671
S3090000137CF8B500BFFB
S30900001380F8B500BFF7
S30900001384BD000000A2
S3090000138895000000C6
S3090100A100FFFFFFFF58
S3090100A200FFFDFFFF59
S705000010E901
