S00E0000315F4750494F2E7372656357
S3150000000000040020790600001D05000075060000AA
S3150000001075060000750600007506000075060000EE
S31500000020000000000000000000000000750600004F
S315000000307506000000000000750600007506000049
S315000000400348044B834202D0034B03B11847704761
S3150000005004A2000104A2000100000000064B0749AB
S31500000060C91A891048BF0131491003D0044B0BB19E
S3150000007001481847704700BF04A2000104A200010E
S315000000800000000010B5064C237843B9FFF7D8FFEF
S31500000090044B13B10448AFF300800123237010BD55
S315000000A0180400200000000004A2000108B5054B5A
S315000000B01BB105490548AFF30080BDE80840FFF7CE
S315000000C0CDBF00BF000000001C04002004A20001F8
S315000000D008B50B4D0B4C002240F20241284600F0B9
S315000000E027F82146012000F0D3F9012240F202410F
S315000000F0284600F01DF82146012000F0C9F9EAE77C
S315000001003404002040420F00FFF7E2BF022800D06F
S3150000011070470249024800F0B7B800BFD407000094
S315000001203404002008B5FFF7EFFF002008BD00BF2C
S315000001300120CBB2984080B202B900040B0A5B01E1
S3150000014003F1804303F5002398600020704700BF49
S315000001502DE9F8430388BBB107464FF00008DFF8E6
S31500000160789000241B4D4FEAC8067B6835F8022BB1
S3150000017099198988914209D00134032CF5D13B881D
S3150000018008F101084345ECD8BDE8F8839B5904F112
S31500000190200203F0B853B3F1807F19F812300CD067
S315000001A0DB09E9D019F81230012123F08003C820B9
S315000001B009F8123000F06CF9DEE7DB09DCD119F83A
S315000001C01230012143F08003C82009F8123000F0F4
S315000001D05FF9D1E7F807000000300840F8B5064699
S315000001E0FFF7B6FFEFF31082012383F31088234F46
S315000001F03B681BB92249CB704023CB703B68013367
S315000002003B6082F31088338823B300211D4D08E03C
S315000002101B01134445F82340328801318BB29A42C0
S3150000022018D9736853F8314003EBC1029288E00392
S315000002304FEA1223D2B2EBD502EB031055F820E0B9
S3150000024024F4803C2EF4803E45F820E01B0145F85E
S3150000025020C0DEE7EFF31082012383F310883B68AA
S3150000026013B13B68013B3B603B681BB980200449E6
S31500000270CB70C87082F31088F8BD00BF7C040020E4
S31500000280000D08400008084008B5034B0360084607
S31500000290FFF7A4FF002008BD54524F50064B0749F4
S315000002A093F826001A6A51F82030C2F30262044914
S315000002B0D3400B60704700BF00E0014000040020FF
S315000002C08C040020704700BFF8B54AF203500123A2
S315000002D04349444AA1F8FE03A2F80431B2F80431B6
S315000002E09BB2002BFAD101204FF400454FF0090CC8
S315000002F03D4CDFF80CE13D4EC4F804E03C4F0EF1F6
S31500000300376E37490EF5D83EE660C4F814E0A2F819
S315000003100001B86038602660A560256191F8262046
S31500000320086A54F82220334EC0F30260C24032609D
S3150000033081F8133481F8A2C091F880341BB991F882
S315000003408134990746D0264D95F88034002B36D057
S315000003500022234B83F8812483F88024002320493C
S3150000036081F8323091F83C301A07FBD54FF498509B
S3150000037000231B4A088581F82A3092F83C309B06F8
S31500000380FBD5032005231749F12581F81C011A49DD
S31500000390116282F8263092F82630106A54F823103B
S315000003A0C0F30260C14031600124F0204FF42541C2
S315000003B0124B1D731C721873A2F8FE13F8BD0121AF
S315000003C0C82085F8801400F063F895F88034012B76
S315000003D0FBD1BDE74FF47A70FFF774FFBEE700BFAD
S315000003E000E0014000C0014000040020002D310162
S315000003F0007000408C0400202112002000200040E4
S3150000040000127A0038B500251C4C0121C82084F85A
S31500000410285000F03DF884F8245094F82430002B3E
S31500000420FBD194F82430154A43F0020384F82430B3
S3150000043092F82430C3F340009B07F9D40F4982F8A1
S31500000440220091F8223003F0FF00002BF9D191F839
S3150000045040300A4A60F3C71381F8403092F84030C2
S31500000460DB09FBD192F84200044963F3C71082F816
S31500000470420091F84230DB09FBD138BD003008401C
S31500000480704700BFA0F101000028FBD1704700BFF4
S315000004901F4B204A1B6800FB01F1934213D302F164
S315000004A0854202F5071203F5741302F6834203F63A
S315000004B0FF03A2FB03231B0DA3FB01314FF0FF300B
S315000004C0F9B1FFF7DFBF4FF47A7210B4A1FB02C493
S315000004D01148B0FBF3F34FF0FF3044B9BCFBF3FC1B
S315000004E04FEA9C0088B15DF8044BFFF7CBBF9B0039
S315000004F0B1FBF3F1A1FB0212002AF4D1084620B1A8
S31500000500F1E71846002BDCD170475DF8044B7047C5
S315000005108C04002000127A0000CA9A3B70B50024B1
S315000005200B4B0C4EB3F82021B3F84051ADB2154039
S3150000053025FA04F3DB0704D556F82430E0B203B1FC
S3150000054098470134102CF3D1014BA3F8305170BDFC
S31500000550006000403C04002010B5032084B000F089
S315000005605FF84FF0FF326FF0FF011148114B04881E
S315000005709964CDE9012203921CB16FF001031A467A
S3150000058001930C490C4B0A67C3F88022029A032098
S315000005904A67C3F88422039A8A67C3F8882200F060
S315000005A00FF814B1054BC3F8004304B010BD00BFEB
S315000005B0680800000080004000E100E000600040A4
S315000005C0EFF31081012383F31088124B33F81020C8
S315000005D092B22AB133F81020013A92B223F81020D1
S315000005E033F810309BB293B910B40B4A0B4CB2F8E7
S315000005F0FE3334F810009BB243F4254323EA00038C
S31500000600A2F8FE3381F310885DF8044B704781F33E
S31500000610108870478004002000E001406C0800004C
S3150000062030B4EFF31081012383F310880E4A32F8B9
S3150000063010309BB26BB90D4C0D4DB4F8FE3335F846
S3150000064010C09BB243EA0C0343F425439BB2A4F8C3
S31500000650FE3332F8103001339BB222F8103081F3AA
S31500000660108830BC704700BF8004002000E00140C5
S315000006706C08000000BE704708B500F035F8FFF7BB
S3150000068051FDFEE7F8B5174F05463E68A6B17C68F2
S3150000069006EB460604EB860602E00C34B4420BD0A9
S315000006A0637AAB42F9D1D4E900020021121A0C3464
S315000006B000F07AF8B442F3D1BE6896B1FC6804EB58
S315000006C0061602E01034A6420BD0637BAB42F9D18A
S315000006D0D4E90002A168121A103400F06DF8A6429F
S315000006E0F3D1F8BD000800004FF47001274B284AEB
S315000006F070B50020C3F888109A60FFF707FDFFF772
S31500000700E3FD0120FFF702FD224B83F30A88002058
S31500000710FFF7B8FFFFF7C2FDFFF774FE0320FFF7F0
S315000007207FFF00234FF6FF701B4903F108020133D8
S31500000730092B21F81200F8D100240320FFF740FF0F
S315000007400320FFF76DFF154B03205C609C60DC60A7
S315000007501C61FFF735FF0220FFF7D8FC0120FFF7E9
S3150000076091FF0F4D0F4B5B1BA3424FEAA30605DD1E
S3150000077055F8043B01349847A642F9DCFFF7ECFE36
S31500000780BDE870400020FFF77BBE00BF00ED00E033
S315000007900000000000000020000D084000000E4090
S315000007A0D0080000D408000002440346934200D15A
S315000007B0704703F8011BF9E70A44431E914200D132
S315000007C0704710B511F8014B914203F8014FF9D16A
S315000007D010BD000003000000E0070000000000005C
S315000007E000000100080100000000010000030000F5
S315000007F004000000020400000204030404040000D4
S31500000800020000005008000003000000200800005D
S315000008100100000018080000000000200000002071
S3150000082000000020000000200000006000010C0312
S315000008300000002000000020000000080000020365
S31500000840000000200000002040000000000001031E
S315000008500000002000000020000000031804002013
S3150000086090040020000000030000000001000200C8
S3150000087008001000200000004275696C742077693A
S3150000088074682052656E6573617320416476616E8B
S3150000089063656420466C657869626C6520536F6693
S315000008A07477617265205061636B61676520766558
S315000008B07273696F6E20362E312E3000362E312E31
S30D000008C03000000000000106F3
S309000008C8F8B500BFBA
S309000008CCF8B500BFB6
S309000008D0AD00000071
S309000008D48500000095
S3090100A100FFFFFFFF58
S3090100A200FFFDFFFF59
S705000006797B
