S00E000031305F5254432E737265636D
S315000000004004002049100000D90E000045100000F1
S315000000104510000045100000451000004510000086
S315000000200000000000000000000000004510000075
S3150000003045100000000000004510000045100000BB
S30D00000040D90A0000490B00007B
S31500000048280000003B000000170000000F00000019
S31500000058070000007D00000002000000000000000C
S30900000068000000008E
S3150000006C0348044B834202D0034B03B11847704735
S3150000007C240000202400002000000000064B074945
S3150000008CC91A891048BF0131491003D0044B0BB172
S3150000009C01481847704700BF2400002024000020A8
S315000000AC0000000010B5064C237843B9FFF7D8FFC3
S315000000BC044B13B10448AFF300800123237010BD29
S315000000CC580400200000000004A2000108B5054BEE
S315000000DC1BB105490548AFF30080BDE80840FFF7A2
S315000000ECCDBF00BF000000005C04002004A200018C
S315000000FC00F050B8022800D070470249024800F0C0
S3150000010CD1BD00BFD8110000C004002010B5084BAB
S3150000011CD3E90041204600F0B1F92046054900F02C
S3150000012CF3FA2046BDE810400E2100F093BB00BF49
S3150000013CA41100000000002030B4094B1D7865B1F5
S3150000014C84460022074C1A700FCCACE80F000FCC7B
S3150000015CACE80F002368CCF80030284630BC70475A
S3150000016C9804002074040020022208B503460548B2
S3150000017C1A700549006800F0CDF90122034B1A707C
S3150000018C08BD00BFA41100007404002098040020D0
S3150000019C704700BF00B58BB02122002101A800F0EA
S315000001ACE5FFFFF7B3FF064C2046FFF7C5FF002817
S315000001BCFAD02122204601A9FFF7EAFFF4E700BF97
S315000001CC9C04002008B5FFF793FF002008BD00BF74
S315000001DC00238446374A10B482F8223092F8223033
S315000001EC03F0FF01002BF9D192F82430314C61F366
S315000001FC000382F8243094F8243013F00103FAD16A
S3150000020CDCF8042092F90F10002916DB01202A4C89
S3150000021C4A0901F01F01203200FA01F144F82210BC
S3150000022CBFF34F8FBFF36F8FDCF80410234A91F99D
S3150000023C0F1042F82130DCF8042092F90D30002B17
S3150000024C17DB01211C485A0903F01F03203201FA5F
S3150000025C03F340F82230BFF34F8FBFF36F8F0021AB
S3150000026CDCF80420154B92F90D2043F82210DCF82B
S3150000027C042092F91130002B15DB01210E485A0986
S3150000028C03F01F03203201FA03F340F82230BFF3C8
S3150000029C4F8FBFF36F8F0021DCF80420074B92F9C8
S315000002AC112043F822100020CCF800005DF8044B16
S315000002BC704700BF0030084000E100E02405002034
S315000002CC10B4324A137CC3F3021003F00F0400EB94
S315000002DC800004EB4004DB090C6081F82430937C2D
S315000002EC0020C3F3021403F00F0C04EB84040CEB94
S315000002FC4404DB094C6081F82530137DC3F30214EA
S3150000030C03F00F0C04EB84040CEB4404DB098C6047
S3150000031C81F82630937DC3F3021403F00F0C04EB23
S3150000032C84040CEB4404DB098C6181F82A30137EBF
S3150000033CC3F3021403F00F0C04EB84040CEB44041B
S3150000034CDB09CC6081F82730937EC3F3021404EBEF
S3150000035C840C03F00F0404EB4C04013CDB090C6128
S3150000036C81F82830938BC3F3031404EB840403F055
S3150000037C0F0303EB4403DBB264334B61937F5DF8ED
S3150000038C044BDB0981F82930704700BF0030084068
S3150000039C02465268044B127800200A7093F82430F7
S315000003ACC3F300034B7070470030084084460020AE
S315000003BCCCE90432CCF80C10704700BF062070470D
S315000003CC70B505466B682C4C1B780E4684F82830A5
S315000003DC0121C82000F034FD94F8243023F00103E9
S315000003EC84F8243094F8243013F00103FAD16A68A7
S315000003FC1278012A02D16385B388A38500231E4A8D
S3150000040C82F8243092F82430DB09FBD192F82430A0
S3150000041C194943F0020382F8243091F824309A07E4
S3150000042CC3F34000F9D4144A81F8220092F8223022
S3150000043C002BFBD192F824300F4943F0400382F88D
S3150000044C243091F824305B06FBD591F840300A4AEB
S3150000045C23F0800381F8403092F84030DB09FBD161
S3150000046C92F84200044963F3C71082F8420091F8EF
S3150000047C4230DB09FBD170BD0030084038B5002393
S3150000048C0D4641604A690446C2608A690372C0E936
S3150000049C0432FFF795FF95F90F20002A0BDBAB7B97
S315000004AC02F160411B01DBB201F5614181F80033B9
S315000004BC134B43F8224095F90D20002A0BDB2B7BBE
S315000004CC02F160411B01DBB201F5614181F8003399
S315000004DC0B4B43F8224095F91120002A0BDB2B7CA1
S315000004EC07481B0102F16041DBB201F5614181F85D
S315000004FC003340F82240034B0020236038BD00BF78
S3150000050C240500204354520008B54168FFF758FFF4
S3150000051C002008BD30B5436893F91130002B09DB78
S3150000052C554A5C0952F8244003F01F03DC4014F0D2
S3150000053C010429D1514A92F8223043F0020382F881
S3150000054C223092F822309C07FBD542684C4B92F92C
S3150000055C112002F1C00453F8245025F4803543F8D9
S3150000056C245053F82430BFF35F8F012453099B00AA
S3150000057C02F01F0203F1604303F5614304FA02F231
S3150000058CC3F880211A6000244FF0000C3B4A80F817
S3150000059C08C093784FEA131E0EEB8E0E03F00F0372
S315000005AC03EB4E03DBB20B6013794FEA131E0EEB13
S315000005BC8E0E03F00F0303EB4E03DBB24B60937905
S315000005CCC3F3011E0EEB8E0E03F00F0303EB4E036B
S315000005DC8B60137A4FEA131E0EEB8E0E03F00F038D
S315000005EC03EB4E03DBB28B61937A4FEA131E0EEBD1
S315000005FC8E0E03F00F0303EB4E03DBB2CB60137BC3
S3150000060C4FEA131E0EEB8E0E03F00F0303EB4E0395
S3150000061CDBB2013B0B61D389C3F3031E0EEB8E0ECB
S3150000062C03F00F0303EB4E03DBB264334B61037A27
S3150000063C002BACD10CB1002030BD92F822300F4902
S3150000064C03F0FD0382F8223091F822309B07FBD48D
S3150000065C01214368084893F911305A0903F01F0326
S3150000066C203201FA03F340F82230BFF34F8FBFF369
S3150000067C6F8F002030BD00BF00E100E00030084065
S3150000068C0060004030B41F4D95F82440C4F30014AC
S3150000069C844213D0002485F82E4095F82E40002C69
S315000006ACFBD195F824C0174C60F3041C85F824C0C4
S315000006BC94F824C0CCF3001C8445F9D101280DD044
S315000006CC03F03F030F4943EA8212D2B281F82E207F
S315000006DC91F82E309A42FBD130BC7047094C94F8F5
S315000006EC2400C0F340108842EAD094F8240061F349
S315000006FC451084F8240094F82400C0F34010884276
S3150000070CF9D1DDE70030084010B54A4B93F82420A8
S3150000071C22F0010283F8242093F82420D207FBD47C
S3150000072C91F800C0444AA2FB0C4E4FEADE0E0EEBCB
S3150000073C8E04ACEB440C4CEA0E1C5FFA8CFC83F872
S3150000074C02C091F804C0A2FB0C4E4FEADE0E0EEB73
S3150000075C8E04ACEB440C4CEA0E1C5FFA8CFC83F852
S3150000076C04C091F808C0A2FB0C4E4FEADE0E0EEB4D
S3150000077C8E04ACEB440C4CEA0E1C0CF03F0C83F8CC
S3150000078C06C091F818C0A2FB0C4E4FEADE0E0EEB1B
S3150000079C8E04ACEB440C4CEA0E1C5FFA8CFC83F812
S315000007AC08C091F80CC0A2FB0C4E4FEADE0E0EEB05
S315000007BC8E04ACEB440C4CEA0E1C5FFA8CFC83F8F2
S315000007CC0AC00C6904F1010C5FFA8CFCA2FB0C4EFE
S315000007DC4FEADE0E0EEB8E04ACEB440C4CEA0E1C10
S315000007EC5FFA8CFC83F80CC049696439C9B2A2FB68
S315000007FC0142D20802EB820CA1EB4C0141EA021138
S3150000080CC9B2D98143681A7862B10A4A92F824307F
S3150000081C43F0010382F8243092F82430DB07FBD531
S3150000082C002010BD98684368827841780078FFF7FD
S3150000083C29FFEAE700300840CDCCCCCC084608B5F9
S3150000084C4B688A7800784978FFF71CFF002008BDB2
S3150000085C062070471C4A92F8223003F00F0343EA35
S3150000086C0113DBB282F8223092F82230B1EB131F5F
S3150000087CFAD192F82230144943F0040382F822305C
S3150000088C91F822305B07FBD54268104B92F90F208A
S3150000089C02F1C00153F8210020F4803043F8210006
S315000008AC53F82130BFF35F8F012153099B0002F0EF
S315000008BC1F0203F1604303F5614301FA02F2C3F828
S315000008CC80211A600020704700300840006000400C
S315000008DC10B50124436882B093F90DC04FEA5C1041
S315000008EC80000CF01F0300F160409C4000F5614055
S315000008FCC0F88040BFF34F8FBFF36F8F91F8243051
S3150000090C002B00F0DA800B786D4AA2FB03E2D208CA
S3150000091C02EB820EA3EB4E0343EA021363F07F0352
S3150000092CDBB28DF807309DF80730664ADBB21374DC
S3150000093C91F82530002B00F0BD800B79604AA2FBA4
S3150000094C03E2D20802EB820EA3EB4E0343EA021338
S3150000095C63F07F03DBB28DF807309DF80730594AF8
S3150000096CDBB2937491F82630002B00F0A0800B7A42
S3150000097C534AA2FB03E2D20802EB820EA3EB4E0310
S3150000098C43EA021363F07F03DBB28DF807309DF860
S3150000099C07304C4ADBB2137591F82A30002B00F065
S315000009AC83800B7E43F080038DF807309DF807306B
S315000009BC444ADBB2937591F82730002B70D00B7B31
S315000009CC3F4AA2FB03E2D20802EB820EA3EB4E03D4
S315000009DC43EA021363F07F03DBB28DF807309DF810
S315000009EC0730384ADBB2137691F82830002B54D0F6
S315000009FC0B69334A0133DBB2A2FB03E2D20802EBEA
S31500000A0C820EA3EB4E0343EA021363F07F03DBB2C1
S31500000A1C8DF807309DF807302A4ADBB2937691F8A9
S31500000A2C2930002B36D04B69254A643BDBB2A2FB3E
S31500000A3C03E2D20802EB820EA3EB4E0343EA021347
S31500000A4CDBB28DF807309DF807301E4ADBB2938374
S31500000A5C91F82930DB01DBB2937792F8223043F020
S31500000A6C010382F8223092F82230DB07FBD5164AB6
S31500000A7C0CF1C00352F8231021F4803142F82310F4
S31500000A8C52F82330BFF35F8FC0F88041046000201A
S31500000A9C02B010BD8DF80730D5E78DF80730B9E7F1
S31500000AAC01238DF807309AE78DF807307EE78DF82D
S31500000ABC07306CE78DF807304FE78DF8073032E7D3
S31500000ACCCDCCCCCC003008400060004070B582B074
S31500000ADCEFF30383174A103B5CB252F82450EB68D1
S31500000AECCBB16A682B6992F90D206E46121B18BFA2
S31500000AFC01225200E3B193E8030086E803001A7062
S31500000B0C6A6918465A60EB6898472B691BB196E8D8
S31500000B1C030083E80300084A04F1C00352F82310CB
S31500000B2C21F4803142F8231052F8233002B070BD04
S31500000B3C3346E4E72405002000600040EFF303830E
S31500000B4C0120084A103B5BB252F82310064A087281
S31500000B5CC03352F8231021F4803142F8231052F896
S31500000B6C2330704724050020006000402DE9F8432F
S31500000B7C0388BBB107464FF00008DFF878900024D5
S31500000B8C1B4D4FEAC8067B6835F8022B99198988E4
S31500000B9C914209D00134032CF5D13B8808F10108A8
S31500000BAC4345ECD8BDE8F8839B5904F1200203F0C9
S31500000BBCB853B3F1807F19F812300CD0DB09E9D0A9
S31500000BCC19F81230012123F08003C82009F81230DD
S31500000BDC00F036F9DEE7DB09DCD119F81230012119
S31500000BEC43F08003C82009F8123000F029F9D1E748
S31500000BFC2C12000000300840F8B50646FFF7B6FF89
S31500000C0CEFF31082012383F31088234F3B681BB943
S31500000C1C2249CB704023CB703B6801333B6082F397
S31500000C2C1088338823B300211D4D08E01B011344A3
S31500000C3C45F82340328801318BB29A4218D9736831
S31500000C4C53F8314003EBC1029288E0034FEA1223BA
S31500000C5CD2B2EBD502EB031055F820E024F4803C1D
S31500000C6C2EF4803E45F820E01B0145F820C0DEE757
S31500000C7CEFF31082012383F310883B6813B13B68B2
S31500000C8C013B3B603B681BB980200449CB70C870A4
S31500000C9C82F31088F8BD00BF20050020000D084027
S31500000CAC0008084008B5034B03600846FFF7A4FF8D
S31500000CBC002008BD54524F50064B074993F82600A6
S31500000CCC1A6A51F82030C2F302620449D3400B6011
S31500000CDC704700BF00E001404004002038050020AA
S31500000CEC704700BFF8B54AF2035001234349444A02
S31500000CFCA1F8FE03A2F80431B2F804319BB2002B22
S31500000D0CFAD101204FF400454FF0090C3D4CDFF8A9
S31500000D1C0CE13D4EC4F804E03C4F0EF1376E3749FA
S31500000D2C0EF5D83EE660C4F814E0A2F80001B860EF
S31500000D3C38602660A560256191F82620086A54F86B
S31500000D4C2220334EC0F30260C240326081F8133465
S31500000D5C81F8A2C091F880341BB991F881349907B7
S31500000D6C46D0264D95F88034002B36D00022234BE6
S31500000D7C83F8812483F880240023204981F83230BB
S31500000D8C91F83C301A07FBD54FF4985000231B4AB8
S31500000D9C088581F82A3092F83C309B06FBD5032057
S31500000DAC05231749F12581F81C011A49116282F8AD
S31500000DBC263092F82630106A54F82310C0F30260DD
S31500000DCCC14031600124F0204FF42541124B1D73B4
S31500000DDC1C721873A2F8FE13F8BD0121C82085F801
S31500000DEC801400F02DF895F88034012BFBD1BDE76B
S31500000DFC4FF47A70FFF774FFBEE700BF00E00140C6
S31500000E0C00C0014040040020002D3101007000405C
S31500000E1C38050020211200200020004000127A0024
S31500000E2C0022024B83F82820704700BF0030084090
S31500000E3C704700BFA0F101000028FBD1704700BF2E
S31500000E4C1F4B204A1B6800FB01F1934213D302F19E
S31500000E5C854202F5071203F5741302F6834203F674
S31500000E6CFF03A2FB03231B0DA3FB01314FF0FF3045
S31500000E7CF9B1FFF7DFBF4FF47A7210B4A1FB02C4CD
S31500000E8C1148B0FBF3F34FF0FF3044B9BCFBF3FC55
S31500000E9C4FEA9C0088B15DF8044BFFF7CBBF9B0073
S31500000EACB1FBF3F1A1FB0212002AF4D1084620B1E2
S31500000EBCF1E71846002BDCD170475DF8044B704700
S31500000ECC3805002000127A0000CA9A3B70B500243F
S31500000EDC0B4B0C4EB3F82021B3F84051ADB2154074
S31500000EEC25FA04F3DB0704D556F82430E0B203B137
S31500000EFC98470134102CF3D1014BA3F8305170BD37
S31500000F0C00600040E004002010B5032084B000F01F
S31500000F1C69F84FF0FF336FF0FF00164C1649228824
S31500000F2C8864CDE9013303931AB16FF001021346BD
S31500000F3C0192628812B123F0020301930E490F4A03
S31500000F4C0B67C2F88032029B03204B67C2F88432CF
S31500000F5C039B8B67C2F8883200F014F8238813B110
S31500000F6C074AC2F80033638813B1054AC2F8043342
S31500000F7C04B010BDF41100000080004000E100E058
S31500000F8C00600040EFF31081012383F31088124BAD
S31500000F9C33F8102092B22AB133F81020013A92B2EB
S31500000FAC23F8102033F810309BB293B910B40B4AC7
S31500000FBC0B4CB2F8FE3334F810009BB243F42543C5
S31500000FCC23EA0003A2F8FE3381F310885DF8044B84
S31500000FDC704781F3108870472C05002000E0014013
S31500000FEC9C12000030B4EFF31081012383F31088B8
S31500000FFC0E4A32F810309BB26BB90D4C0D4DB4F84D
S3150000100CFE3335F810C09BB243EA0C0343F4254378
S3150000101C9BB2A4F8FE3332F8103001339BB222F89F
S3150000102C103081F3108830BC704700BF2C050020AF
S3150000103C00E001409C12000000BE704708B500F0AD
S3150000104C35F8FFF7BFF8FEE7F8B5174F05463E68CB
S3150000105CA6B17C6806EB460604EB860602E00C3469
S3150000106CB4420BD0637AAB42F9D1D4E90002002129
S3150000107C121A0C3400F07AF8B442F3D1BE6896B169
S3150000108CFC6804EB061602E01034A6420BD0637B18
S3150000109CAB42F9D1D4E90002A168121A103400F05F
S315000010AC6DF8A642F3D1F8BD341200004FF470016E
S315000010BC274B284A70B50020C3F888109A60FFF7B2
S315000010CC19F8FFF70FFE0120FFF714F8224B83F3F4
S315000010DC0A880020FFF7B8FFFFF7EEFDFFF7A0FE2A
S315000010EC0320FFF77FFF00234FF6FF701B4903F128
S315000010FC08020133092B21F81200F8D10024032031
S3150000110CFFF740FF0320FFF76DFF154B03205C60D4
S3150000111C9C60DC601C61FFF735FF0220FEF7EAFFDE
S3150000112C0120FFF791FF0F4D0F4B5B1BA3424FEABC
S3150000113CA30605DD55F8043B01349847A642F9DCB5
S3150000114CFFF7E2FEBDE870400020FFF771BE00BF5E
S3150000115C00ED00E00000000040000020000D0840FB
S3150000116C00000E4000130000041300000244034666
S3150000117C934200D1704703F8011BF9E70A44431E5A
S3150000118C914200D1704710B511F8014B914203F80A
S3150000119C014FF9D110BD0000C8040020B0110000A9
S315000011ACF811000000000000FF000000D011000044
S315000011BCFFDF0D000D0100007501000000000000AE
S315000011CC0000000001010000000000000200000009
S315000011DCE4110000000000000000010008010000FE
S315000011EC00000100000300005500560089040000B1
S315000011FCDD010000150500001507000021050000A3
S3150000120CDD080000CD02000061080000490800005E
S3150000121CB90300009D030000C90300005D0800002F
S3150000122C02040304040400000200000084120000FF
S3150000123C0300000054120000010000004C120000D4
S3150000124C400000204000002000000020000000208C
S3150000125C0000006000010C030000002000000020CC
S3150000126C00000008000002030000002024000020FB
S3150000127C480000000000010324000020400000206C
S3150000128C00000003580400203C0500200000000369
S3150000129C0100020008001000200000004275696C75
S315000012AC7420776974682052656E6573617320418A
S315000012BC6476616E63656420466C657869626C65FC
S315000012CC20536F667477617265205061636B61673A
S315000012DC652076657273696F6E20362E312E30005E
S311000012EC362E312E3000000000000106F6
S309000012F8F8B500BF80
S309000012FCF8B500BF7C
S30900001300D90000000A
S30900001304B10000002E
S3090100A100FFFFFFFF58
S3090100A200FFFDFFFF59
S70500001049A1
