S00D0000335F5343492E73726563A6
S3150000000080140020DD0D0000F90B0000D90D000062
S31500000010D90D0000D90D0000D90D0000D90D000042
S31500000020000000000000000000000000D90D0000E4
S31500000030D90D000000000000D90D0000D90D000008
S31500000040DD060000510600006D070000B507000040
S315000000500100000040003500000000000300000021
S315000000605815002018000020000000005815002038
S31500000070C015002028160020000000000000000027
S31500000080000000000000000000000000000000006A
S31500000090000000000000000000000000000000005A
S315000000A0000000000000000000000000000000004A
S309000000B00000000046
S315000000B40348044B834202D0034B03B118477047ED
S315000000C4640000206400002000000000064B07497D
S315000000D4C91A891048BF0131491003D0044B0BB12A
S315000000E401481847704700BF6400002064000020E0
S315000000F40000000010B5064C237843B9FFF7D8FF7B
S31500000104044B13B10448AFF300800123237010BDE0
S31500000114981400200000000004A2000108B5054B55
S315000001241BB105490548AFF30080BDE80840FFF759
S31500000134CDBF00BF000000009C14002004A20001F3
S3150000014400F05EB8022800D070470249024800F069
S3150000015407BC00BFC0180000B814002008B5054944
S31500000164054800F0A7F800B908BD0448BDE80840F2
S3150000017400F0E2BF8C180000C01400203418000000
S3150000018403790146022B0AD0042B02D0012B0AD094
S315000001947047064B06481A68083100F041B8012238
S315000001A4044B1A707047044A13707047000000200D
S315000001B4C0140020B5140020B41400204FF0FF3002
S315000001C4704700BF4FF0FF30704700BF00207047F4
S315000001D44FF0FF30704700BF0120704710B5064846
S315000001E4144600F01DF805490B78002BFCD00023BB
S315000001F40B70204610BD00BFC0140020B5140020AB
S3150000020408B5FFF7ABFF024800F096FFFEE700BF14
S315000002144C18000008B5FFF793FF002008BD00BF87
S3150000022410B4046AA37803F07B03A3708378046A8A
S3150000023403F00303D21A0B44C0E90332A37843F054
S315000002448003A370837803F00303022B06D0036AAA
S315000002540A780020DA705DF8044B70470B88026A4E
S3150000026443F47E43D38100205DF8044B704700BFFE
S31500000274F0B5846A85B005460F4694466E46B4B119
S3150000028494E80F0086E80F00EB6920461B78A76008
S31500000294236084F804C0EB6AE3606B6A9847AC6A2F
S315000002A41CB196E80F0084E80F0005B0F0BD344693
S315000002B4EAE700BF034600224FF0010C2DE9F041A6
S315000002C408781A7000F5800000F58C500002C3E926
S315000002D407104869D44C58628D699878C3E90A2591
S315000002E46CF3010098704878904214BF6546022565
S315000002F4987865F30100987091F90B5091F80AE02B
S31500000304680905F01F0620300CFA06F644F820604A
S31500000314BFF34F8FBFF36F8FC44805F1C00650F883
S31500000324267062F3104740F8267050F82660C04ED7
S315000003344FEA0E1E67195FFA8EFE87F800E346F849
S31500000344253091F9055091F804E06F0905F01F086E
S3150000035420370CFA08F844F82780BFF34F8FBFF311
S315000003646F8F05F1C00750F8278062F3104840F8F4
S31500000374278050F827704FEA0E1E67195FFA8EFE23
S3150000038487F800E346F8253091F9075091F806E01E
S315000003946F0905F01F0820370CFA08F844F827807F
S315000003A4BFF34F8FBFF36F8F05F1C00750F8278057
S315000003B462F3104840F8278050F827704FEA0E1E63
S315000003C467195FFA8EFE87F800E346F8253091F93F
S315000003D4095091F808E06F0905F01F0820370CFA58
S315000003E408F844F82780BFF34F8FBFF36F8F05F1EA
S315000003F4C00750F8278062F3104840F8278050F869
S3150000040427004FEA0E10C0B22C4484F8000346F8C5
S315000004142530EFF310868CF310884FF000450C78E6
S315000004248448E540446824EA05044460406886F349
S315000004341088186A8270186A0271186A4272186AF9
S315000004448272186AC272186A428340F201220878DC
S315000004540CFA00FC1CEA020F02D040201A6AD0747F
S315000004640625012240F201201C6A25770C78A24059
S31500000474024203D04FF478401A6A9082CA784878C8
S315000004848C78D200032842EA041200F0DB800028AC
S315000004940CBFE220F2201C6AD2B222701A6A907152
S315000004A4C869027B082A00F0C9801C6A520002F05F
S315000004B402026273002542788478D201640104F052
S315000004C42004D2B222431C6A25720478023C012C11
S315000004D41C6A40F29D80D2B2E27140681A6A84783E
S315000004E454704578147865F301041470C4789474D0
S315000004F4D479007804F0A30400F05C002043D071A2
S315000005040020C3E90300C3E90500DC69474A94F9FE
S315000005140540CD6904F1C00152F8216095F800C088
S3150000052460F3104642F821600CF0030C52F82110D7
S31500000534BFF35F8F4FF0010E6109890004F01F04B9
S3150000054401F1604101F561410EFA04F4C1F88041FC
S315000005540C60D96991F90B4004F1C00152F821608D
S3150000056460F3104642F8216052F82110BFF35F8F02
S315000005746109890004F01F0401F160410EFA04F4D4
S3150000058401F56141C1F880410C60D96991F90740D0
S3150000059404F1C00152F8216060F3104642F821606C
S315000005A452F82110BFF35F8F6109890004F01F041C
S315000005B401F160410EFA04F401F56141C1F880418C
S315000005C40C60D96991F9091001F1C00452F824604C
S315000005D460F3104642F8246052F82420BFF35F8F7C
S315000005E44A09920001F01F0102F160420EFA01F17C
S315000005F402F56142C2F8801111601A6A4CF0700C5F
S3150000060482F802C069890C4A19815A60BDE8F081F2
S31500000614FF2565700078022808BF42F01002186AA8
S31500000624D2B2C2716CE700BF00E100E00060004096
S315000006343415002000400840554943530A241A6AD9
S31500000644547337E7F22042F0400224E7EFF30383C2
S31500000654103B1F4A5BB203F1C00152F8210020F49B
S31500000664803042F8210052F821201A4A52F8230019
S31500000674C3691B6983B1036903B17047026A002128
S31500000684937803F07F0343F004039370436AC160D5
S31500000694C3B18022FFF7ECBD0369026A002BEED0DA
S315000006A48378C16803F00303022B0CD00B78D37054
S315000006B48278D0E9031302F003029B1A1144C0E9BD
S315000006C40313D9E770470B8843F47E43D381EFE7DE
S315000006D4006000403415002010B582B0EFF30383A8
S315000006E4103B1F4A5BB203F1C00152F8210020F40B
S315000006F4803042F8210052F821201A4A52F8234049
S31500000704A27802F00303022B236A0CBF198A5979D3
S31500000714A3690CBFC1F30801C9B2019143B9636A65
S31500000724B3B10422204602B0BDE81040FFF7A0BDD5
S3150000073402F0030201A9606900F035FED4E905213F
S31500000744A37803F003031A44C91AC4E9052109B1BD
S3150000075402B010BD636A002BFAD00122E2E700BFA3
S31500000764006000403415002010B5EFF303830E4AF1
S31500000774103B5CB252F82400026A937803F07B03C0
S315000007849370436A1BB102220021FFF771FD074AE9
S3150000079404F1C00352F8231021F4803142F82310E7
S315000007A452F8233010BD00BF34150020006000400D
S315000007B410B5EFF303831A4A103B5CB252F82400D7
S315000007C4837803F00303022B036A0CBF198A597951
S315000007D493F804C00CBFC1F30801C9B21CF0100F92
S315000007E40CF0380206D093F81CC01CF0010F08BFA9
S315000007F442F0400293F804C00CF0C70C83F804C01E
S31500000804436A0BB1FFF734FD064A04F1C00352F8FC
S31500000814231021F4803142F8231052F8233010BDFE
S3150000082434150020006000402DE9F8430388BBB16D
S3150000083407464FF00008DFF8789000241B4D4FEA76
S31500000844C8067B6835F8022B99198988914209D024
S315000008540134032CF5D13B8808F101084345ECD853
S31500000864BDE8F8839B5904F1200203F0B853B3F1B1
S31500000874807F19F812300CD0DB09E9D019F8123050
S31500000884012123F08003C82009F8123000F06CF926
S31500000894DEE7DB09DCD119F81230012143F08003CD
S315000008A4C82009F8123000F05FF9D1E7F418000007
S315000008B400300840F8B50646FFF7B6FFEFF310829E
S315000008C4012383F31088234F3B681BB92249CB705D
S315000008D44023CB703B6801333B6082F31088338836
S315000008E423B300211D4D08E01B01134445F82340A2
S315000008F4328801318BB29A4218D9736853F8314061
S3150000090403EBC1029288E0034FEA1223D2B2EBD57D
S3150000091402EB031055F820E024F4803C2EF4803ECC
S3150000092445F820E01B0145F820C0DEE7EFF310820E
S31500000934012383F310883B6813B13B68013B3B609A
S315000009443B681BB980200449CB70C87082F31088B9
S31500000954F8BD00BF30150020000D0840000808400F
S3150000096408B5034B03600846FFF7A4FF002008BD43
S3150000097454524F50064B074993F826001A6A51F809
S315000009842030C2F302620449D3400B60704700BFB3
S3150000099400E001408014002054150020704700BF79
S315000009A4F8B54AF2035001234349444AA1F8FE0329
S315000009B4A2F80431B2F804319BB2002BFAD101201B
S315000009C44FF400454FF0090C3D4CDFF80CE13D4E69
S315000009D4C4F804E03C4F0EF1376E37490EF5D83EA5
S315000009E4E660C4F814E0A2F80001B8603860266036
S315000009F4A560256191F82620086A54F82220334E12
S31500000A04C0F30260C240326081F8133481F8A2C098
S31500000A1491F880341BB991F88134990746D0264D54
S31500000A2495F88034002B36D00022234B83F881249A
S31500000A3483F880240023204981F8323091F83C3031
S31500000A441A07FBD54FF4985000231B4A088581F8F2
S31500000A542A3092F83C309B06FBD503200523174920
S31500000A64F12581F81C011A49116282F8263092F8A0
S31500000A742630106A54F82310C0F30260C140316076
S31500000A840124F0204FF42541124B1D731C72187378
S31500000A94A2F8FE13F8BD0121C82085F8801400F0E1
S31500000AA463F895F88034012BFBD1BDE74FF47A70D7
S31500000AB4FFF774FFBEE700BF00E0014000C001403D
S31500000AC480140020002D31010070004054150020D0
S31500000AD4211200200020004000127A0038B50025BB
S31500000AE41C4C0121C82084F8285000F03DF884F8F5
S31500000AF4245094F82430002BFBD194F82430154A62
S31500000B0443F0020384F8243092F82430C3F34000FF
S31500000B149B07F9D40F4982F8220091F8223003F09A
S31500000B24FF00002BF9D191F840300A4A60F3C7134D
S31500000B3481F8403092F84030DB09FBD192F842004C
S31500000B44044963F3C71082F8420091F84230DB0986
S31500000B54FBD138BD00300840704700BFA0F101004A
S31500000B640028FBD1704700BF1F4B204A1B6800FBBF
S31500000B7401F1934213D302F1854202F5071203F5FC
S31500000B84741302F6834203F6FF03A2FB03231B0D31
S31500000B94A3FB01314FF0FF30F9B1FFF7DFBF4FF48C
S31500000BA47A7210B4A1FB02C41148B0FBF3F34FF000
S31500000BB4FF3044B9BCFBF3FC4FEA9C0088B15DF8F6
S31500000BC4044BFFF7CBBF9B00B1FBF3F1A1FB021271
S31500000BD4002AF4D1084620B1F1E71846002BDCD1EF
S31500000BE470475DF8044B70475415002000127A00D4
S31500000BF400CA9A3B70B500240B4B0C4EB3F8202167
S31500000C04B3F84051ADB2154025FA04F3DB0704D519
S31500000C1456F82430E0B203B198470134102CF3D1CE
S31500000C24014BA3F8305170BD00600040F014002061
S31500000C3470B5032084B000F087F86FF0FF054FF01D
S31500000C44FF31254A254C13885088002BA5640BBF19
S31500000C54002601260B466FF00103CDE9011103912D
S31500000C6438B3918823F0020359B3D28823F00403DE
S31500000C7422BB019319491A4A0B67C2F88032029BB8
S31500000C8403204B67C2F88432039B164C8B67C2F869
S31500000C94883200F029F800230F4931F8022B03F1BA
S31500000CA4C00001330AB144F82020042BF5D104B066
S31500000CB470BD90880028D8D1D28842B123F00803A9
S31500000CC4D7E7D288002AD4D023F00803D1E7002E30
S31500000CD4CFD10B46CEE700BFEC18000000800040E1
S31500000CE400E100E000600040EFF31081012383F38C
S31500000CF41088124B33F8102092B22AB133F8102020
S31500000D04013A92B223F8102033F810309BB293B90B
S31500000D1410B40B4A0B4CB2F8FE3334F810009BB2F5
S31500000D2443F4254323EA0003A2F8FE3381F3108833
S31500000D345DF8044B704781F3108870474415002012
S31500000D4400E001406419000030B4EFF31081012380
S31500000D5483F310880E4A32F810309BB26BB90D4CEF
S31500000D640D4DB4F8FE3335F810C09BB243EA0C03BC
S31500000D7443F425439BB2A4F8FE3332F81030013312
S31500000D849BB222F8103081F3108830BC704700BF44
S31500000D944415002000E001406419000008B503462C
S31500000DA40A4903330A6823F0030309481344B3F5D5
S31500000DB4805F104401D80B6008BD00F0EBFA0C22EA
S31500000DC403461A604FF0FF3008BD00BF50150020DF
S31500000DD48000002000BE704708B500F035F8FFF724
S31500000DE419FAFEE7F8B5174F05463E68A6B17C68C2
S31500000DF406EB460604EB860602E00C34B4420BD03E
S31500000E04637AAB42F9D1D4E900020021121A0C34F8
S31500000E1400F072FAB442F3D1BE6896B1FC6804EBF2
S31500000E24061602E01034A6420BD0637BAB42F9D11E
S31500000E34D4E90002A168121A103400F0B4FAA642EA
S31500000E44F3D1F8BDFC1800004FF47001274B284A73
S31500000E5470B50020C3F888109A60FFF773F9FFF79E
S31500000E649FFD0120FFF76EF9224B83F30A880020C9
S31500000E74FFF7B8FFFFF77EFDFFF730FE0320FFF70D
S31500000E8463FF00234FF6FF701B4903F10802013389
S31500000E94092B21F81200F8D100240320FFF724FFC0
S31500000EA40320FFF751FF154B03205C609C60DC6058
S31500000EB41C61FFF719FF0220FFF744F90120FFF731
S31500000EC491FF0F4D0F4B5B1BA3424FEAA30605DDB3
S31500000ED455F8043B01349847A642F9DCFFF7A8FE0F
S31500000EE4BDE870400020FFF737BE00BF00ED00E00C
S31500000EF40000000080100020000D084000000E4095
S31500000F04C8190000CC190000002310B504468360FC
S31500000F14818119464366C28108228361C0E9003390
S31500000F24C0E904335C3000F0E7F90D4B24626362D8
S31500000F340C4BA3620C4BE3620C4B23630C4B9C429D
S31500000F4406D003F16802944202D0D0339C4205D104
S31500000F5404F15800BDE8104000F022BA10BD00BFED
S31500000F644D1100006F110000A7110000CB11000005
S31500000F7458150020024A0349034800F069B800BF27
S31500000F8408000020BD1600001800002041680C4B24
S31500000F94994210B5044601D000F08EFBA168094BB6
S31500000FA4994202D0204600F087FBE168064B99423D
S31500000FB404D02046BDE8104000F07EBB10BD00BF43
S31500000FC458150020C01500202816002010B50B4B1C
S31500000FD404210B4C0B4A20461A600022FFF794FFAB
S31500000FE404F1680001220921FFF78EFF04F1D00005
S31500000FF402221221BDE81040FFF786BF901600209A
S3150000100458150020790F0000014800F0CAB900BF46
S3150000101499160020014800F0C5B900BF99160020B2
S3150000102410B50446FFF7F0FF236A1BB1BDE8104074
S31500001034FFF7F0BF044B2362044B1B68002BF5D16A
S31500001044FFF7C4FFF2E700BF910F000090160020DF
S315000010542DE9F8430746884614460026D4E9019547
S31500001064B9F1010905D52468002CF7D13046BDE84D
S31500001074F883AB89012B07D9B5F90E30013303D0B8
S3150000108429463846C04706436835E9E7036A70B51A
S3150000109405460E4684680BB9FFF7C2FF636EDB078D
S315000010A405D4A389980502D4A06D00F07AF9A38922
S315000010B4190702D52369002B35D12146284600F0AD
S315000010C4C5F880B34FF0FF35636EDA0705D4A389FC
S315000010D49B0502D4A06D00F065F9284670BD002B6F
S315000010E404DAA2699A4217DC0A2915D023685A1C25
S315000010F422601970A36816F8011F013BA36000293A
S31500001104EDD1002B11DA22460A21284600F05FF8B9
S315000011140130D7D00A25D7E72246284600F057F8EB
S315000011240130E7D1CEE7013EE4E723685A1C22608A
S315000011340A221A70EEE70000024B01461868FFF710
S31500001144A5BF00BF1400002010B50C46B1F90E105F
S3150000115400F0FCF80028ABBF636DA3891B1823F4C9
S315000011648053ACBF6365A38110BD2DE9F0411F46D2
S315000011748B8905460C46DB05164605D50223002257
S31500001184B1F90E1000F0D0F8A3893246B4F90E1066
S31500001194284623F48053A3813B46BDE8F04100F082
S315000011A4E7B810B50C46B1F90E1000F0BDF8431CB3
S315000011B4A38915BF606523F4805343F48053A38148
S315000011C418BFA38110BDB1F90E1000F09DB8F8B593
S315000011D40E461446054618B1036A0BB9FFF720FFFD
S315000011E4A369A360A3891A0701D5236943B92146D4
S315000011F4284600F02BF818B14FF0FF373846F8BDF3
S315000012042368F6B222693746981A6369834205DC75
S315000012142146284600F050FA0028EDD1A368013B88
S31500001224A36023685A1C22601E70431C62699A429A
S3150000123404D0A389DB07E1D50A2EDFD1214628464F
S3150000124400F03AFA0028D9D0D6E7000038B5294B81
S3150000125405460C46186818B1036A0BB9FFF7E0FE99
S31500001264B4F90C30190722D4DA0607D409222A6005
S3150000127443F040034FF0FF30A38133E0580712D503
S31500001284616B41B104F14403994202D0284600F04F
S3150000129497F800236363A38923F02403A38100231F
S315000012A4636023692360A38943F00803A381236948
S315000012B44BB9A38903F42073B3F5007F03D0214609
S315000012C4284600F046FAB4F90C3013F001020AD0AD
S315000012D40022A26062695242A261226942B913F0F5
S315000012E48000C5D138BD990758BF6269A260F4E78A
S315000012F40020F7E71400002002440346934200D17D
S31500001304704703F8011BF9E738B50023054D044679
S3150000131408462B60FEF752FF431C02D12B6803B12B
S31500001324236038BD9416002038B50446064D084699
S31500001334114600222A601A46FEF744FF431C02D1D6
S315000013442B6803B1236038BD9416002038B50446D3
S31500001354064D0846114600222A601A46FEF736FF55
S31500001364431C02D12B6803B1236038BD94160020B8
S3150000137438B50446064D0846114600222A601A4628
S31500001384FEF72CFF431C02D12B6803B1236038BD42
S3150000139494160020014B1868704700BF1400002003
S315000013A47047704770470A44431E914200D1704704
S315000013B410B511F8014B914203F8014FF9D110BD54
S315000013C438B50546002941D051F8043C0C1F002BC2
S315000013D4B8BFE41800F0E0F81D4A136833B9636037
S315000013E414602846BDE8384000F0DCB8A34208D9AA
S315000013F4206821188B4201BF19685B6809182160AF
S31500001404EDE71A465B680BB1A342FAD91168501886
S31500001414A0420BD120680144501811608342E0D1E8
S3150000142418685B68084453601060DAE702D90C2335
S315000014342B60D6E7206821188B4202BF19685B68C7
S315000014440918636008BF21605460CAE738BD00BF4D
S31500001454A016002070B50F4E0C460546316811B92A
S3150000146400F0D6F930602146284600F0D1F9431C35
S3150000147403D14FF0FF34204670BDC41C24F003048E
S31500001484A042F8D0211A284600F0C2F90130F2D160
S31500001494EFE700BF9C1600202DE9F843CD1C064655
S315000014A425F0030508350C2D38BF0C25002D01DB6E
S315000014B4A94204D90C2333600020BDE8F883DFF881
S315000014C4D48000F069F8D8F800301C4644BB29469D
S315000014D43046FFF7BFFF431C044658D1D8F80040F6
S315000014E42746002F43D1002C4BD02368394630467B
S315000014F404EB030900F08CF9814542D1216830469A
S315000015046D1A2946FFF7A6FF01303AD023682B440B
S315000015142360D8F800305A6862BBC8F800700FE040
S315000015242268521B20D40B2A17D96119A3422560BD
S3150000153418BF5960636808BFC8F8001062514B6051
S31500001544304600F02FF804F10B00231D20F00700AD
S31500001554C21A1CBF1B1AA350AFE76268A3420CBF92
S31500001564C8F800205A60EBE723466468AEE73C46B9
S315000015747F68B6E71A465B68A342FBD10023536033
S31500001584DEE70C233046336000F00CF894E7056080
S31500001594D6E700BFA01600200148FFF702BF00BF30
S315000015A4981600200148FFF7FDBE00BF98160020DC
S315000015B4B1F90C202DE9F041160705460C4654D422
S315000015C44B68002B02DC0B6C002B48DDE66A002E10
S315000015D445D0002312F480522F68216A2B6030D044
S315000015E4626DA389590705D56368D21A636B0BB17B
S315000015F4236CD21A0023E66A216A2846B047431CA4
S31500001604A38906D129681D292BD82A4ACA40D60798
S3150000161427D50022D90462602269226004D5421CBF
S3150000162401D12B6803B96065616B2F60B9B104F110
S315000016344403994202D02846FFF7C2FE002363639F
S315000016440DE001232846B0470246501CC9D12B6839
S31500001654002BC6D01D2B01D0162B1DD12F600020C8
S3150000166421E043F040031BB21AE00F69002FF6D0C5
S3150000167493070E680F600CBF4B690023A6EB07089F
S315000016848B60B8F1000FEADD43463A46216A2846E4
S31500001694A66AB047002808DCB4F90C3043F04003CE
S315000016A44FF0FF30A381BDE8F0810744A8EB0008A2
S315000016B4E7E700BF0100402038B50B6905460C4634
S315000016C413B90025284638BD18B1036A0BB9FFF7CC
S315000016D4A7FCB4F90C30002BF3D0626ED00704D407
S315000016E4990502D4A06DFFF75CFE28462146FFF754
S315000016F45FFF636E0546DA07E4D4A3899B05E1D44C
S31500001704A06DFFF74FFEDDE770B50C46B1F90E107C
S3150000171496B0154600291E460CDAA389002113F05B
S31500001724800F14BF40234FF48063002031602B6088
S3150000173416B070BD6A4600F049F80028EDDB019941
S3150000174401F47041A1F50053594259414FF48063A5
S31500001754EBE78B89F7B59D0706460C4607D504F1DA
S315000017644703236023610123636103B0F0BD01AB2A
S315000017746A46FFF7C9FF009F054630463946FFF71C
S315000017848BFE48B9B4F90C309A05EED423F0030362
S3150000179443F00203A381E2E7A389206043F08003B8
S315000017A4A381019BC4E904075BB1B4F90E1030466A
S315000017B400F01EF828B1A38923F0030343F00103C4
S315000017C4A381A3891D43A581CFE7000038B5002373
S315000017D4064D0446084611462B60FEF7F9FC431CE9
S315000017E402D12B6803B1236038BD00BF94160020D4
S315000017F438B50023054D044608462B60FEF7ECFC7D
S31500001804431C02D12B6803B1236038BD9416002013
S3150000181438B50023054D044608462B60FFF7BEFA8B
S31500001824431C02D12B6803B1236038BD94160020F3
S31500001834E4B8B2E58FA3E5889DE5A78BE58C96E52C
S31500001844A4B1E8B4A5212000E68EA5E4B88BE69DF4
S31500001854A5E5BC80E5A78BE4B8B2E58FA3E5BEAAEF
S31500001864E78EAFE5AE9EE9AA8CEFBC8CE8AFB7E88D
S31500001874BE93E585A5E59B9EE78EAFE58685E5AE39
S31500001884B9EFBC9A0D000000000200000C000C0128
S315000018940C020C030000000000000000850100009B
S315000018A400000000AC180000000100000400002045
S315000018B40F00FFFF00000000FFFF0000040000000F
S315000018C4CC18000000000000000001040001000024
S315000018D400000104010100000000010008010000ED
S315000018E400000100000300008001810182018301E0
S315000018F40204030404040000020000004C19000062
S31500001904030000001C190000010000001419000067
S31500001914800000208000002000000020000000203D
S315000019240000006000010C030000002000000020FD
S3150000193400000008000002030000002064000020EC
S315000019445000000000000103640000208000002015
S315000019540000000398140020A416002000000003D1
S315000019640100020008001000200000004275696CA6
S315000019747420776974682052656E657361732041BB
S315000019846476616E63656420466C657869626C652D
S3150000199420536F667477617265205061636B61676B
S315000019A4652076657273696F6E20362E312E30008F
S311000019B4362E312E300000000000010627
S309000019C0F8B500BFB1
S309000019C4F8B500BFAD
S309000019C821010000F3
S309000019CCF900000018
S3090100A100FFFFFFFF58
S3090100A200FFFDFFFF59
S70500000DDD10
